{
  "contractName": "Escrow",
  "abi": [
    {
      "constant": true,
      "inputs": [],
      "name": "seller",
      "outputs": [
        {
          "name": "",
          "type": "address"
        }
      ],
      "payable": false,
      "stateMutability": "view",
      "type": "function"
    },
    {
      "constant": true,
      "inputs": [],
      "name": "buyer",
      "outputs": [
        {
          "name": "",
          "type": "address"
        }
      ],
      "payable": false,
      "stateMutability": "view",
      "type": "function"
    },
    {
      "constant": true,
      "inputs": [],
      "name": "amount",
      "outputs": [
        {
          "name": "",
          "type": "uint256"
        }
      ],
      "payable": false,
      "stateMutability": "view",
      "type": "function"
    },
    {
      "constant": true,
      "inputs": [],
      "name": "escrow",
      "outputs": [
        {
          "name": "",
          "type": "address"
        }
      ],
      "payable": false,
      "stateMutability": "view",
      "type": "function"
    },
    {
      "inputs": [
        {
          "name": "buyer_address",
          "type": "address"
        },
        {
          "name": "escrow_address",
          "type": "address"
        },
        {
          "name": "escrow_value",
          "type": "uint256"
        }
      ],
      "payable": false,
      "stateMutability": "nonpayable",
      "type": "constructor"
    },
    {
      "constant": false,
      "inputs": [],
      "name": "GetStatus",
      "outputs": [
        {
          "name": "",
          "type": "uint256"
        }
      ],
      "payable": false,
      "stateMutability": "nonpayable",
      "type": "function"
    },
    {
      "constant": false,
      "inputs": [],
      "name": "accept",
      "outputs": [],
      "payable": false,
      "stateMutability": "nonpayable",
      "type": "function"
    },
    {
      "constant": false,
      "inputs": [],
      "name": "depositEscrow",
      "outputs": [],
      "payable": true,
      "stateMutability": "payable",
      "type": "function"
    },
    {
      "constant": false,
      "inputs": [],
      "name": "deposit",
      "outputs": [],
      "payable": true,
      "stateMutability": "payable",
      "type": "function"
    },
    {
      "constant": false,
      "inputs": [],
      "name": "cancel",
      "outputs": [],
      "payable": false,
      "stateMutability": "nonpayable",
      "type": "function"
    },
    {
      "constant": true,
      "inputs": [],
      "name": "kill",
      "outputs": [],
      "payable": false,
      "stateMutability": "view",
      "type": "function"
    }
  ],
  "bytecode": "0x608060405234801561001057600080fd5b506040516060806109b883398101806040528101908080519060200190929190805190602001909291908051906020019092919050505082600260006101000a81548173ffffffffffffffffffffffffffffffffffffffff021916908373ffffffffffffffffffffffffffffffffffffffff16021790555033600360006101000a81548173ffffffffffffffffffffffffffffffffffffffff021916908373ffffffffffffffffffffffffffffffffffffffff16021790555081600460006101000a81548173ffffffffffffffffffffffffffffffffffffffff021916908373ffffffffffffffffffffffffffffffffffffffff16021790555080600681905550426005819055506000600781905550505050610886806101326000396000f3006080604052600436106100a4576000357c0100000000000000000000000000000000000000000000000000000000900463ffffffff16806308551a53146100a95780632852b71c1461010057806341c0e1b5146101175780637150d8ae1461012e5780638aa1c0dc14610185578063aa8c217c1461018f578063abd95b95146101ba578063d0e30db0146101e5578063e2fdcc17146101ef578063ea8a1af014610246575b600080fd5b3480156100b557600080fd5b506100be61025d565b604051808273ffffffffffffffffffffffffffffffffffffffff1673ffffffffffffffffffffffffffffffffffffffff16815260200191505060405180910390f35b34801561010c57600080fd5b50610115610283565b005b34801561012357600080fd5b5061012c610424565b005b34801561013a57600080fd5b506101436104b7565b604051808273ffffffffffffffffffffffffffffffffffffffff1673ffffffffffffffffffffffffffffffffffffffff16815260200191505060405180910390f35b61018d6104dd565b005b34801561019b57600080fd5b506101a4610545565b6040518082815260200191505060405180910390f35b3480156101c657600080fd5b506101cf61054b565b6040518082815260200191505060405180910390f35b6101ed610555565b005b3480156101fb57600080fd5b506102046105c5565b604051808273ffffffffffffffffffffffffffffffffffffffff1673ffffffffffffffffffffffffffffffffffffffff16815260200191505060405180910390f35b34801561025257600080fd5b5061025b6105eb565b005b600360009054906101000a900473ffffffffffffffffffffffffffffffffffffffff1681565b600260009054906101000a900473ffffffffffffffffffffffffffffffffffffffff1673ffffffffffffffffffffffffffffffffffffffff163373ffffffffffffffffffffffffffffffffffffffff1614156102f9576001600860006101000a81548160ff02191690831515021790555061036c565b600360009054906101000a900473ffffffffffffffffffffffffffffffffffffffff1673ffffffffffffffffffffffffffffffffffffffff163373ffffffffffffffffffffffffffffffffffffffff16141561036b576001600860016101000a81548160ff0219169083151502179055505b5b600860009054906101000a900460ff1680156103945750600860019054906101000a900460ff165b156103a6576103a1610740565b610422565b600860009054906101000a900460ff1680156103cf5750600860019054906101000a900460ff16155b80156103e1575062278d006005540142115b1561042157600260009054906101000a900473ffffffffffffffffffffffffffffffffffffffff1673ffffffffffffffffffffffffffffffffffffffff16ff5b5b565b600460009054906101000a900473ffffffffffffffffffffffffffffffffffffffff1673ffffffffffffffffffffffffffffffffffffffff163373ffffffffffffffffffffffffffffffffffffffff1614156104b557600260009054906101000a900473ffffffffffffffffffffffffffffffffffffffff1673ffffffffffffffffffffffffffffffffffffffff16ff5b565b600260009054906101000a900473ffffffffffffffffffffffffffffffffffffffff1681565b600360009054906101000a900473ffffffffffffffffffffffffffffffffffffffff1673ffffffffffffffffffffffffffffffffffffffff163373ffffffffffffffffffffffffffffffffffffffff161415610543573460008082825401925050819055505b565b60065481565b6000600754905090565b600260009054906101000a900473ffffffffffffffffffffffffffffffffffffffff1673ffffffffffffffffffffffffffffffffffffffff163373ffffffffffffffffffffffffffffffffffffffff1614156105c35734600080828254019250508190555060016007819055505b565b600460009054906101000a900473ffffffffffffffffffffffffffffffffffffffff1681565b600260009054906101000a900473ffffffffffffffffffffffffffffffffffffffff1673ffffffffffffffffffffffffffffffffffffffff163373ffffffffffffffffffffffffffffffffffffffff161415610661576000600860006101000a81548160ff0219169083151502179055506106d4565b600360009054906101000a900473ffffffffffffffffffffffffffffffffffffffff1673ffffffffffffffffffffffffffffffffffffffff163373ffffffffffffffffffffffffffffffffffffffff1614156106d3576000600860016101000a81548160ff0219169083151502179055505b5b600860009054906101000a900460ff161580156106fe5750600860019054906101000a900460ff16155b1561073e57600260009054906101000a900473ffffffffffffffffffffffffffffffffffffffff1673ffffffffffffffffffffffffffffffffffffffff16ff5b565b600460009054906101000a900473ffffffffffffffffffffffffffffffffffffffff1673ffffffffffffffffffffffffffffffffffffffff166108fc60643073ffffffffffffffffffffffffffffffffffffffff163181151561079f57fe5b049081150290604051600060405180830381858888f193505050501580156107cb573d6000803e3d6000fd5b50600360009054906101000a900473ffffffffffffffffffffffffffffffffffffffff1673ffffffffffffffffffffffffffffffffffffffff166108fc3073ffffffffffffffffffffffffffffffffffffffff16319081150290604051600060405180830381858888f193505050501561085357600080819055506004600781905550610858565b600080fd5b5600a165627a7a72305820fe338fa8b4ca96259328225162853449ed1c9ea818479f8c2ebb22d097c008da0029",
  "source": "pragma solidity ^0.4.11;\r\n\r\ncontract Escrow {\r\n    uint balance;\r\n    uint balanceEscrow;\r\n    address public buyer;\r\n    address public seller;\r\n    address public escrow;\r\n    uint private start;\r\n    uint public amount;\r\n    uint escrow_state;\r\n    bool buyerOk;\r\n    bool sellerOk;\r\n    constructor(address buyer_address, address escrow_address, uint escrow_value) public {\r\n        // this is the constructor function that runs ONCE upon initialization\r\n        buyer = buyer_address;\r\n        seller = msg.sender;\r\n        escrow = escrow_address;\r\n        amount = escrow_value;\r\n        start = now; //now is an alias for block.timestamp, not really \"now\"\r\n        escrow_state = 0; //state of escrow 0 created, 1 funded, 2 refunded, 3 expired, 4 released\r\n\r\n    }\r\n    function GetStatus() public returns (uint){\r\n      return escrow_state;\r\n\r\n    }\r\n    function accept() public {\r\n        if (msg.sender == buyer){\r\n            buyerOk = true;\r\n        } else if (msg.sender == seller){\r\n            sellerOk = true;\r\n        }\r\n        if (buyerOk && sellerOk){\r\n            payBalance();\r\n        } else if (buyerOk && !sellerOk && now > start + 30 days) {\r\n            // Freeze 30 days before release to buyer. The customer has to remember to call this method after freeze period.\r\n            selfdestruct(buyer);\r\n        }\r\n    }\r\n\r\n    function payBalance() private {\r\n        // we are sending ourselves (contract creator) a fee\r\n        escrow.transfer(this.balance / 100);\r\n        // send seller the balance\r\n        if (seller.send(this.balance)) {\r\n            balance = 0;\r\n            escrow_state=4;\r\n        } else {\r\n            throw;\r\n        }\r\n    }\r\n    function depositEscrow() public payable {\r\n      if(msg.sender == seller){\r\n        balance += msg.value;\r\n      }\r\n\r\n    }\r\n    function deposit() public payable {\r\n        if (msg.sender == buyer) {\r\n            balance += msg.value;\r\n            escrow_state=1;\r\n        }\r\n    }\r\n\r\n    function cancel() public {\r\n        if (msg.sender == buyer){\r\n            buyerOk = false;\r\n        } else if (msg.sender == seller){\r\n            sellerOk = false;\r\n        }\r\n        // if both buyer and seller would like to cancel, money is returned to buyer\r\n        if (!buyerOk && !sellerOk){\r\n            selfdestruct(buyer);\r\n        }\r\n    }\r\n\r\n    function kill() public constant {\r\n        if (msg.sender == escrow) {\r\n            selfdestruct(buyer);\r\n\r\n        }\r\n    }\r\n}\r\n",
  "sourcePath": "C:\\Users\\Monty\\source\\repos\\Escrow\\EscrowNetCore\\truffle\\contracts\\escrow.sol",
  "compiler": {
    "name": "solc",
    "version": "0.4.23+commit.124ca40d.Emscripten.clang"
  },
  "schemaVersion": "2.0.0",
  "updatedAt": "2018-06-12T23:45:22.845Z"
}