{
  "contractName": "Escrow",
  "abi": [
    {
      "constant": true,
      "inputs": [],
      "name": "seller",
      "outputs": [
        {
          "name": "",
          "type": "address"
        }
      ],
      "payable": false,
      "stateMutability": "view",
      "type": "function"
    },
    {
      "constant": true,
      "inputs": [],
      "name": "buyer",
      "outputs": [
        {
          "name": "",
          "type": "address"
        }
      ],
      "payable": false,
      "stateMutability": "view",
      "type": "function"
    },
    {
      "constant": true,
      "inputs": [],
      "name": "amount",
      "outputs": [
        {
          "name": "",
          "type": "uint256"
        }
      ],
      "payable": false,
      "stateMutability": "view",
      "type": "function"
    },
    {
      "constant": true,
      "inputs": [],
      "name": "escrow",
      "outputs": [
        {
          "name": "",
          "type": "address"
        }
      ],
      "payable": false,
      "stateMutability": "view",
      "type": "function"
    },
    {
      "inputs": [
        {
          "name": "buyer_address",
          "type": "address"
        },
        {
          "name": "seller_address",
          "type": "address"
        }
      ],
      "payable": false,
      "stateMutability": "nonpayable",
      "type": "constructor"
    },
    {
      "constant": false,
      "inputs": [],
      "name": "accept",
      "outputs": [],
      "payable": false,
      "stateMutability": "nonpayable",
      "type": "function"
    },
    {
      "constant": false,
      "inputs": [],
      "name": "deposit",
      "outputs": [],
      "payable": true,
      "stateMutability": "payable",
      "type": "function"
    },
    {
      "constant": false,
      "inputs": [],
      "name": "cancel",
      "outputs": [],
      "payable": false,
      "stateMutability": "nonpayable",
      "type": "function"
    },
    {
      "constant": true,
      "inputs": [],
      "name": "kill",
      "outputs": [],
      "payable": false,
      "stateMutability": "view",
      "type": "function"
    }
  ],
  "bytecode": "0x608060405234801561001057600080fd5b506040516040806108d1833981018060405281019080805190602001909291908051906020019092919050505081600160006101000a81548173ffffffffffffffffffffffffffffffffffffffff021916908373ffffffffffffffffffffffffffffffffffffffff16021790555080600260006101000a81548173ffffffffffffffffffffffffffffffffffffffff021916908373ffffffffffffffffffffffffffffffffffffffff16021790555033600360006101000a81548173ffffffffffffffffffffffffffffffffffffffff021916908373ffffffffffffffffffffffffffffffffffffffff1602179055504260048190555050506107b9806101186000396000f30060806040526004361061008e576000357c0100000000000000000000000000000000000000000000000000000000900463ffffffff16806308551a53146100935780632852b71c146100ea57806341c0e1b5146101015780637150d8ae14610118578063aa8c217c1461016f578063d0e30db01461019a578063e2fdcc17146101a4578063ea8a1af0146101fb575b600080fd5b34801561009f57600080fd5b506100a8610212565b604051808273ffffffffffffffffffffffffffffffffffffffff1673ffffffffffffffffffffffffffffffffffffffff16815260200191505060405180910390f35b3480156100f657600080fd5b506100ff610238565b005b34801561010d57600080fd5b506101166103d9565b005b34801561012457600080fd5b5061012d61046c565b604051808273ffffffffffffffffffffffffffffffffffffffff1673ffffffffffffffffffffffffffffffffffffffff16815260200191505060405180910390f35b34801561017b57600080fd5b50610184610492565b6040518082815260200191505060405180910390f35b6101a2610498565b005b3480156101b057600080fd5b506101b9610500565b604051808273ffffffffffffffffffffffffffffffffffffffff1673ffffffffffffffffffffffffffffffffffffffff16815260200191505060405180910390f35b34801561020757600080fd5b50610210610526565b005b600260009054906101000a900473ffffffffffffffffffffffffffffffffffffffff1681565b600160009054906101000a900473ffffffffffffffffffffffffffffffffffffffff1673ffffffffffffffffffffffffffffffffffffffff163373ffffffffffffffffffffffffffffffffffffffff1614156102ae576001600660006101000a81548160ff021916908315150217905550610321565b600260009054906101000a900473ffffffffffffffffffffffffffffffffffffffff1673ffffffffffffffffffffffffffffffffffffffff163373ffffffffffffffffffffffffffffffffffffffff161415610320576001600660016101000a81548160ff0219169083151502179055505b5b600660009054906101000a900460ff1680156103495750600660019054906101000a900460ff165b1561035b5761035661067b565b6103d7565b600660009054906101000a900460ff1680156103845750600660019054906101000a900460ff16155b8015610396575062278d006004540142115b156103d657600160009054906101000a900473ffffffffffffffffffffffffffffffffffffffff1673ffffffffffffffffffffffffffffffffffffffff16ff5b5b565b600360009054906101000a900473ffffffffffffffffffffffffffffffffffffffff1673ffffffffffffffffffffffffffffffffffffffff163373ffffffffffffffffffffffffffffffffffffffff16141561046a57600160009054906101000a900473ffffffffffffffffffffffffffffffffffffffff1673ffffffffffffffffffffffffffffffffffffffff16ff5b565b600160009054906101000a900473ffffffffffffffffffffffffffffffffffffffff1681565b60055481565b600160009054906101000a900473ffffffffffffffffffffffffffffffffffffffff1673ffffffffffffffffffffffffffffffffffffffff163373ffffffffffffffffffffffffffffffffffffffff1614156104fe573460008082825401925050819055505b565b600360009054906101000a900473ffffffffffffffffffffffffffffffffffffffff1681565b600160009054906101000a900473ffffffffffffffffffffffffffffffffffffffff1673ffffffffffffffffffffffffffffffffffffffff163373ffffffffffffffffffffffffffffffffffffffff16141561059c576000600660006101000a81548160ff02191690831515021790555061060f565b600260009054906101000a900473ffffffffffffffffffffffffffffffffffffffff1673ffffffffffffffffffffffffffffffffffffffff163373ffffffffffffffffffffffffffffffffffffffff16141561060e576000600660016101000a81548160ff0219169083151502179055505b5b600660009054906101000a900460ff161580156106395750600660019054906101000a900460ff16155b1561067957600160009054906101000a900473ffffffffffffffffffffffffffffffffffffffff1673ffffffffffffffffffffffffffffffffffffffff16ff5b565b600360009054906101000a900473ffffffffffffffffffffffffffffffffffffffff1673ffffffffffffffffffffffffffffffffffffffff166108fc60643073ffffffffffffffffffffffffffffffffffffffff16318115156106da57fe5b049081150290604051600060405180830381858888f19350505050158015610706573d6000803e3d6000fd5b50600260009054906101000a900473ffffffffffffffffffffffffffffffffffffffff1673ffffffffffffffffffffffffffffffffffffffff166108fc3073ffffffffffffffffffffffffffffffffffffffff16319081150290604051600060405180830381858888f1935050505015610786576000808190555061078b565b600080fd5b5600a165627a7a72305820db08ac130ee2d01ede1cabfdb7759f46246f44cfe3b61b3593298bfa1b8619ce0029",
  "source": "pragma solidity ^0.4.11;\r\ncontract Escrow {\r\n    uint balance;\r\n    address public buyer;\r\n    address public seller;\r\n    address public escrow;\r\n    uint private start;\r\n    uint public amount;\r\n    bool buyerOk;\r\n    bool sellerOk;\r\n    constructor(address buyer_address, address seller_address) public {\r\n        // this is the constructor function that runs ONCE upon initialization\r\n        buyer = buyer_address;\r\n        seller = seller_address;\r\n        escrow = msg.sender;\r\n        start = now; //now is an alias for block.timestamp, not really \"now\"\r\n    }\r\n    \r\n    function accept() public {\r\n        if (msg.sender == buyer){\r\n            buyerOk = true;\r\n        } else if (msg.sender == seller){\r\n            sellerOk = true;\r\n        }\r\n        if (buyerOk && sellerOk){\r\n            payBalance();\r\n        } else if (buyerOk && !sellerOk && now > start + 30 days) {\r\n            // Freeze 30 days before release to buyer. The customer has to remember to call this method after freeze period.\r\n            selfdestruct(buyer);\r\n        }\r\n    }\r\n\r\n    function payBalance() private {\r\n        // we are sending ourselves (contract creator) a fee\r\n        escrow.transfer(this.balance / 100);\r\n        // send seller the balance\r\n        if (seller.send(this.balance)) {\r\n            balance = 0;\r\n        } else {\r\n            throw;\r\n        }\r\n    }\r\n\r\n    function deposit() public payable {\r\n        if (msg.sender == buyer) {\r\n            balance += msg.value;\r\n        }\r\n    }\r\n\r\n    function cancel() public {\r\n        if (msg.sender == buyer){\r\n            buyerOk = false;\r\n        } else if (msg.sender == seller){\r\n            sellerOk = false;\r\n        }\r\n        // if both buyer and seller would like to cancel, money is returned to buyer\r\n        if (!buyerOk && !sellerOk){\r\n            selfdestruct(buyer);\r\n        }\r\n    }\r\n\r\n    function kill() public constant {\r\n        if (msg.sender == escrow) {\r\n            selfdestruct(buyer);\r\n        }\r\n    }\r\n}\r\n",
  "sourcePath": "C:\\Users\\Monty\\source\\repos\\EscrowAngularJS\\truffle\\contracts\\escrow.sol",
  "compiler": {
    "name": "solc",
    "version": "0.4.23+commit.124ca40d.Emscripten.clang"
  },
  "schemaVersion": "2.0.0",
  "updatedAt": "2018-05-22T13:25:30.108Z"
}