{
  "contractName": "Escrow",
  "abi": [
    {
      "constant": true,
      "inputs": [],
      "name": "seller",
      "outputs": [
        {
          "name": "",
          "type": "address"
        }
      ],
      "payable": false,
      "stateMutability": "view",
      "type": "function"
    },
    {
      "constant": true,
      "inputs": [],
      "name": "buyer",
      "outputs": [
        {
          "name": "",
          "type": "address"
        }
      ],
      "payable": false,
      "stateMutability": "view",
      "type": "function"
    },
    {
      "constant": true,
      "inputs": [],
      "name": "amount",
      "outputs": [
        {
          "name": "",
          "type": "uint256"
        }
      ],
      "payable": false,
      "stateMutability": "view",
      "type": "function"
    },
    {
      "constant": true,
      "inputs": [],
      "name": "escrow",
      "outputs": [
        {
          "name": "",
          "type": "address"
        }
      ],
      "payable": false,
      "stateMutability": "view",
      "type": "function"
    },
    {
      "inputs": [
        {
          "name": "buyer_address",
          "type": "address"
        },
        {
          "name": "seller_address",
          "type": "address"
        }
      ],
      "payable": false,
      "stateMutability": "nonpayable",
      "type": "constructor"
    },
    {
      "constant": false,
      "inputs": [],
      "name": "getBalance",
      "outputs": [
        {
          "name": "",
          "type": "uint256"
        }
      ],
      "payable": false,
      "stateMutability": "nonpayable",
      "type": "function"
    },
    {
      "constant": false,
      "inputs": [],
      "name": "accept",
      "outputs": [],
      "payable": false,
      "stateMutability": "nonpayable",
      "type": "function"
    },
    {
      "constant": false,
      "inputs": [],
      "name": "deposit",
      "outputs": [],
      "payable": true,
      "stateMutability": "payable",
      "type": "function"
    },
    {
      "constant": false,
      "inputs": [],
      "name": "cancel",
      "outputs": [],
      "payable": false,
      "stateMutability": "nonpayable",
      "type": "function"
    },
    {
      "constant": true,
      "inputs": [],
      "name": "kill",
      "outputs": [],
      "payable": false,
      "stateMutability": "view",
      "type": "function"
    }
  ],
  "bytecode": "0x608060405234801561001057600080fd5b50604051604080610910833981018060405281019080805190602001909291908051906020019092919050505081600160006101000a81548173ffffffffffffffffffffffffffffffffffffffff021916908373ffffffffffffffffffffffffffffffffffffffff16021790555080600260006101000a81548173ffffffffffffffffffffffffffffffffffffffff021916908373ffffffffffffffffffffffffffffffffffffffff16021790555033600360006101000a81548173ffffffffffffffffffffffffffffffffffffffff021916908373ffffffffffffffffffffffffffffffffffffffff1602179055504260048190555050506107f8806101186000396000f300608060405260043610610099576000357c0100000000000000000000000000000000000000000000000000000000900463ffffffff16806308551a531461009e57806312065fe0146100f55780632852b71c1461012057806341c0e1b5146101375780637150d8ae1461014e578063aa8c217c146101a5578063d0e30db0146101d0578063e2fdcc17146101da578063ea8a1af014610231575b600080fd5b3480156100aa57600080fd5b506100b3610248565b604051808273ffffffffffffffffffffffffffffffffffffffff1673ffffffffffffffffffffffffffffffffffffffff16815260200191505060405180910390f35b34801561010157600080fd5b5061010a61026e565b6040518082815260200191505060405180910390f35b34801561012c57600080fd5b50610135610277565b005b34801561014357600080fd5b5061014c610418565b005b34801561015a57600080fd5b506101636104ab565b604051808273ffffffffffffffffffffffffffffffffffffffff1673ffffffffffffffffffffffffffffffffffffffff16815260200191505060405180910390f35b3480156101b157600080fd5b506101ba6104d1565b6040518082815260200191505060405180910390f35b6101d86104d7565b005b3480156101e657600080fd5b506101ef61053f565b604051808273ffffffffffffffffffffffffffffffffffffffff1673ffffffffffffffffffffffffffffffffffffffff16815260200191505060405180910390f35b34801561023d57600080fd5b50610246610565565b005b600260009054906101000a900473ffffffffffffffffffffffffffffffffffffffff1681565b60008054905090565b600160009054906101000a900473ffffffffffffffffffffffffffffffffffffffff1673ffffffffffffffffffffffffffffffffffffffff163373ffffffffffffffffffffffffffffffffffffffff1614156102ed576001600660006101000a81548160ff021916908315150217905550610360565b600260009054906101000a900473ffffffffffffffffffffffffffffffffffffffff1673ffffffffffffffffffffffffffffffffffffffff163373ffffffffffffffffffffffffffffffffffffffff16141561035f576001600660016101000a81548160ff0219169083151502179055505b5b600660009054906101000a900460ff1680156103885750600660019054906101000a900460ff165b1561039a576103956106ba565b610416565b600660009054906101000a900460ff1680156103c35750600660019054906101000a900460ff16155b80156103d5575062278d006004540142115b1561041557600160009054906101000a900473ffffffffffffffffffffffffffffffffffffffff1673ffffffffffffffffffffffffffffffffffffffff16ff5b5b565b600360009054906101000a900473ffffffffffffffffffffffffffffffffffffffff1673ffffffffffffffffffffffffffffffffffffffff163373ffffffffffffffffffffffffffffffffffffffff1614156104a957600160009054906101000a900473ffffffffffffffffffffffffffffffffffffffff1673ffffffffffffffffffffffffffffffffffffffff16ff5b565b600160009054906101000a900473ffffffffffffffffffffffffffffffffffffffff1681565b60055481565b600160009054906101000a900473ffffffffffffffffffffffffffffffffffffffff1673ffffffffffffffffffffffffffffffffffffffff163373ffffffffffffffffffffffffffffffffffffffff16141561053d573460008082825401925050819055505b565b600360009054906101000a900473ffffffffffffffffffffffffffffffffffffffff1681565b600160009054906101000a900473ffffffffffffffffffffffffffffffffffffffff1673ffffffffffffffffffffffffffffffffffffffff163373ffffffffffffffffffffffffffffffffffffffff1614156105db576000600660006101000a81548160ff02191690831515021790555061064e565b600260009054906101000a900473ffffffffffffffffffffffffffffffffffffffff1673ffffffffffffffffffffffffffffffffffffffff163373ffffffffffffffffffffffffffffffffffffffff16141561064d576000600660016101000a81548160ff0219169083151502179055505b5b600660009054906101000a900460ff161580156106785750600660019054906101000a900460ff16155b156106b857600160009054906101000a900473ffffffffffffffffffffffffffffffffffffffff1673ffffffffffffffffffffffffffffffffffffffff16ff5b565b600360009054906101000a900473ffffffffffffffffffffffffffffffffffffffff1673ffffffffffffffffffffffffffffffffffffffff166108fc60643073ffffffffffffffffffffffffffffffffffffffff163181151561071957fe5b049081150290604051600060405180830381858888f19350505050158015610745573d6000803e3d6000fd5b50600260009054906101000a900473ffffffffffffffffffffffffffffffffffffffff1673ffffffffffffffffffffffffffffffffffffffff166108fc3073ffffffffffffffffffffffffffffffffffffffff16319081150290604051600060405180830381858888f19350505050156107c557600080819055506107ca565b600080fd5b5600a165627a7a72305820f95a16d88361fe00bc014df7f6a9fbef745d42e2ec83f57b8b5e9280aa890c380029",
  "source": "pragma solidity ^0.4.11;\r\ncontract Escrow {\r\n    uint balance;\r\n    address public buyer;\r\n    address public seller;\r\n    address public escrow;\r\n    uint private start;\r\n    uint public amount;\r\n    bool buyerOk;\r\n    bool sellerOk;\r\n    constructor(address buyer_address, address seller_address) public {\r\n        // this is the constructor function that runs ONCE upon initialization\r\n        buyer = buyer_address;\r\n        seller = seller_address;\r\n        escrow = msg.sender;\r\n        start = now; //now is an alias for block.timestamp, not really \"now\"\r\n    }\r\n    function getBalance() public returns (uint) {\r\n\r\n        return balance;\r\n    }\r\n    function accept() public {\r\n        if (msg.sender == buyer){\r\n            buyerOk = true;\r\n        } else if (msg.sender == seller){\r\n            sellerOk = true;\r\n        }\r\n        if (buyerOk && sellerOk){\r\n            payBalance();\r\n        } else if (buyerOk && !sellerOk && now > start + 30 days) {\r\n            // Freeze 30 days before release to buyer. The customer has to remember to call this method after freeze period.\r\n            selfdestruct(buyer);\r\n        }\r\n    }\r\n\r\n    function payBalance() private {\r\n        // we are sending ourselves (contract creator) a fee\r\n        escrow.transfer(this.balance / 100);\r\n        // send seller the balance\r\n        if (seller.send(this.balance)) {\r\n            balance = 0;\r\n        } else {\r\n            throw;\r\n        }\r\n    }\r\n\r\n    function deposit() public payable {\r\n        if (msg.sender == buyer) {\r\n            balance += msg.value;\r\n        }\r\n    }\r\n\r\n    function cancel() public {\r\n        if (msg.sender == buyer){\r\n            buyerOk = false;\r\n        } else if (msg.sender == seller){\r\n            sellerOk = false;\r\n        }\r\n        // if both buyer and seller would like to cancel, money is returned to buyer\r\n        if (!buyerOk && !sellerOk){\r\n            selfdestruct(buyer);\r\n        }\r\n    }\r\n\r\n    function kill() public constant {\r\n        if (msg.sender == escrow) {\r\n            selfdestruct(buyer);\r\n        }\r\n    }\r\n}\r\n",
  "sourcePath": "C:\\Users\\Monty\\source\\repos\\EscrowCore\\truffle\\contracts\\escrow.sol",
  "compiler": {
    "name": "solc",
    "version": "0.4.23+commit.124ca40d.Emscripten.clang"
  },
  "schemaVersion": "2.0.0",
  "updatedAt": "2018-05-30T05:07:32.181Z"
}