{
  "contractName": "Escrow",
  "abi": [
    {
      "constant": true,
      "inputs": [],
      "name": "seller",
      "outputs": [
        {
          "name": "",
          "type": "address"
        }
      ],
      "payable": false,
      "stateMutability": "view",
      "type": "function"
    },
    {
      "constant": true,
      "inputs": [],
      "name": "buyer",
      "outputs": [
        {
          "name": "",
          "type": "address"
        }
      ],
      "payable": false,
      "stateMutability": "view",
      "type": "function"
    },
    {
      "constant": true,
      "inputs": [],
      "name": "amount",
      "outputs": [
        {
          "name": "",
          "type": "uint256"
        }
      ],
      "payable": false,
      "stateMutability": "view",
      "type": "function"
    },
    {
      "constant": true,
      "inputs": [],
      "name": "escrow",
      "outputs": [
        {
          "name": "",
          "type": "address"
        }
      ],
      "payable": false,
      "stateMutability": "view",
      "type": "function"
    },
    {
      "inputs": [
        {
          "name": "buyer_address",
          "type": "address"
        },
        {
          "name": "escrow_address",
          "type": "address"
        },
        {
          "name": "escrow_value",
          "type": "uint256"
        }
      ],
      "payable": false,
      "stateMutability": "nonpayable",
      "type": "constructor"
    },
    {
      "constant": false,
      "inputs": [],
      "name": "GetStatus",
      "outputs": [
        {
          "name": "",
          "type": "address"
        }
      ],
      "payable": false,
      "stateMutability": "nonpayable",
      "type": "function"
    },
    {
      "constant": false,
      "inputs": [],
      "name": "accept",
      "outputs": [],
      "payable": false,
      "stateMutability": "nonpayable",
      "type": "function"
    },
    {
      "constant": false,
      "inputs": [],
      "name": "depositEscrow",
      "outputs": [],
      "payable": true,
      "stateMutability": "payable",
      "type": "function"
    },
    {
      "constant": false,
      "inputs": [],
      "name": "deposit",
      "outputs": [],
      "payable": true,
      "stateMutability": "payable",
      "type": "function"
    },
    {
      "constant": false,
      "inputs": [],
      "name": "cancel",
      "outputs": [],
      "payable": false,
      "stateMutability": "nonpayable",
      "type": "function"
    },
    {
      "constant": true,
      "inputs": [],
      "name": "kill",
      "outputs": [],
      "payable": false,
      "stateMutability": "view",
      "type": "function"
    }
  ],
  "bytecode": "0x608060405234801561001057600080fd5b50604051606080610d7b83398101806040528101908080519060200190929190805190602001909291908051906020019092919050505082600260006101000a81548173ffffffffffffffffffffffffffffffffffffffff021916908373ffffffffffffffffffffffffffffffffffffffff16021790555033600360006101000a81548173ffffffffffffffffffffffffffffffffffffffff021916908373ffffffffffffffffffffffffffffffffffffffff16021790555081600460006101000a81548173ffffffffffffffffffffffffffffffffffffffff021916908373ffffffffffffffffffffffffffffffffffffffff1602179055508060068190555042600581905550610120610185565b604051809103906000f08015801561013c573d6000803e3d6000fd5b50600760006101000a81548173ffffffffffffffffffffffffffffffffffffffff021916908373ffffffffffffffffffffffffffffffffffffffff160217905550505050610195565b6040516101d980610ba283390190565b6109fe806101a46000396000f3006080604052600436106100a4576000357c0100000000000000000000000000000000000000000000000000000000900463ffffffff16806308551a53146100a95780632852b71c1461010057806341c0e1b5146101175780637150d8ae1461012e5780638aa1c0dc14610185578063aa8c217c1461018f578063abd95b95146101ba578063d0e30db014610211578063e2fdcc171461021b578063ea8a1af014610272575b600080fd5b3480156100b557600080fd5b506100be610289565b604051808273ffffffffffffffffffffffffffffffffffffffff1673ffffffffffffffffffffffffffffffffffffffff16815260200191505060405180910390f35b34801561010c57600080fd5b506101156102af565b005b34801561012357600080fd5b5061012c610450565b005b34801561013a57600080fd5b506101436104e3565b604051808273ffffffffffffffffffffffffffffffffffffffff1673ffffffffffffffffffffffffffffffffffffffff16815260200191505060405180910390f35b61018d610509565b005b34801561019b57600080fd5b506101a4610571565b6040518082815260200191505060405180910390f35b3480156101c657600080fd5b506101cf610577565b604051808273ffffffffffffffffffffffffffffffffffffffff1673ffffffffffffffffffffffffffffffffffffffff16815260200191505060405180910390f35b6102196105a1565b005b34801561022757600080fd5b506102306106a7565b604051808273ffffffffffffffffffffffffffffffffffffffff1673ffffffffffffffffffffffffffffffffffffffff16815260200191505060405180910390f35b34801561027e57600080fd5b506102876106cd565b005b600360009054906101000a900473ffffffffffffffffffffffffffffffffffffffff1681565b600260009054906101000a900473ffffffffffffffffffffffffffffffffffffffff1673ffffffffffffffffffffffffffffffffffffffff163373ffffffffffffffffffffffffffffffffffffffff161415610325576001600760146101000a81548160ff021916908315150217905550610398565b600360009054906101000a900473ffffffffffffffffffffffffffffffffffffffff1673ffffffffffffffffffffffffffffffffffffffff163373ffffffffffffffffffffffffffffffffffffffff161415610397576001600760156101000a81548160ff0219169083151502179055505b5b600760149054906101000a900460ff1680156103c05750600760159054906101000a900460ff165b156103d2576103cd610822565b61044e565b600760149054906101000a900460ff1680156103fb5750600760159054906101000a900460ff16155b801561040d575062278d006005540142115b1561044d57600260009054906101000a900473ffffffffffffffffffffffffffffffffffffffff1673ffffffffffffffffffffffffffffffffffffffff16ff5b5b565b600460009054906101000a900473ffffffffffffffffffffffffffffffffffffffff1673ffffffffffffffffffffffffffffffffffffffff163373ffffffffffffffffffffffffffffffffffffffff1614156104e157600260009054906101000a900473ffffffffffffffffffffffffffffffffffffffff1673ffffffffffffffffffffffffffffffffffffffff16ff5b565b600260009054906101000a900473ffffffffffffffffffffffffffffffffffffffff1681565b600360009054906101000a900473ffffffffffffffffffffffffffffffffffffffff1673ffffffffffffffffffffffffffffffffffffffff163373ffffffffffffffffffffffffffffffffffffffff16141561056f573460008082825401925050819055505b565b60065481565b6000600760009054906101000a900473ffffffffffffffffffffffffffffffffffffffff16905090565b600260009054906101000a900473ffffffffffffffffffffffffffffffffffffffff1673ffffffffffffffffffffffffffffffffffffffff163373ffffffffffffffffffffffffffffffffffffffff1614156106a557346000808282540192505081905550600760009054906101000a900473ffffffffffffffffffffffffffffffffffffffff1673ffffffffffffffffffffffffffffffffffffffff1663f3a504f26040518163ffffffff167c0100000000000000000000000000000000000000000000000000000000028152600401600060405180830381600087803b15801561068c57600080fd5b505af11580156106a0573d6000803e3d6000fd5b505050505b565b600460009054906101000a900473ffffffffffffffffffffffffffffffffffffffff1681565b600260009054906101000a900473ffffffffffffffffffffffffffffffffffffffff1673ffffffffffffffffffffffffffffffffffffffff163373ffffffffffffffffffffffffffffffffffffffff161415610743576000600760146101000a81548160ff0219169083151502179055506107b6565b600360009054906101000a900473ffffffffffffffffffffffffffffffffffffffff1673ffffffffffffffffffffffffffffffffffffffff163373ffffffffffffffffffffffffffffffffffffffff1614156107b5576000600760156101000a81548160ff0219169083151502179055505b5b600760149054906101000a900460ff161580156107e05750600760159054906101000a900460ff16155b1561082057600260009054906101000a900473ffffffffffffffffffffffffffffffffffffffff1673ffffffffffffffffffffffffffffffffffffffff16ff5b565b600460009054906101000a900473ffffffffffffffffffffffffffffffffffffffff1673ffffffffffffffffffffffffffffffffffffffff166108fc60643073ffffffffffffffffffffffffffffffffffffffff163181151561088157fe5b049081150290604051600060405180830381858888f193505050501580156108ad573d6000803e3d6000fd5b50600360009054906101000a900473ffffffffffffffffffffffffffffffffffffffff1673ffffffffffffffffffffffffffffffffffffffff166108fc3073ffffffffffffffffffffffffffffffffffffffff16319081150290604051600060405180830381858888f19350505050156109cb5760008081905550600760009054906101000a900473ffffffffffffffffffffffffffffffffffffffff1673ffffffffffffffffffffffffffffffffffffffff1663961325216040518163ffffffff167c0100000000000000000000000000000000000000000000000000000000028152600401600060405180830381600087803b1580156109ae57600080fd5b505af11580156109c2573d6000803e3d6000fd5b505050506109d0565b600080fd5b5600a165627a7a723058208de841a02043d0945906926a71454711dfac4f65c60337b12227ac37167898420029608060405234801561001057600080fd5b506000600181905550426000819055506101aa8061002f6000396000f300608060405260043610610078576000357c0100000000000000000000000000000000000000000000000000000000900463ffffffff16806312f539501461007d5780634c2067c71461009457806396132521146100ab578063b80777ea146100c2578063c19d93fb146100ed578063f3a504f214610118575b600080fd5b34801561008957600080fd5b5061009261012f565b005b3480156100a057600080fd5b506100a9610140565b005b3480156100b757600080fd5b506100c0610151565b005b3480156100ce57600080fd5b506100d7610162565b6040518082815260200191505060405180910390f35b3480156100f957600080fd5b50610102610168565b6040518082815260200191505060405180910390f35b34801561012457600080fd5b5061012d61016e565b005b600260018190555042600081905550565b600360018190555042600081905550565b600460018190555042600081905550565b60005481565b60015481565b60018081905550426000819055505600a165627a7a72305820bdb978d9ca446973fc4a3b01633cde44de4cb4f027073b0fe06f841f87c5e14e0029",
  "source": "pragma solidity ^0.4.11;\r\ncontract Status {\r\n  uint public timestamp;\r\n  uint public state;\r\n constructor()\r\n {\r\n    state = 0;\r\n    timestamp = now;\r\n }\r\n function funded() public\r\n {\r\n   state = 1;\r\n   timestamp = now;\r\n\r\n }\r\n function refunded() public\r\n {\r\n   state = 2;\r\n   timestamp = now;\r\n\r\n }\r\n function expired() public\r\n {\r\n   state = 3;\r\n   timestamp = now;\r\n\r\n }\r\n function released() public\r\n {\r\n   state = 4;\r\n   timestamp = now;\r\n }\r\n}\r\ncontract Escrow {\r\n    uint balance;\r\n    uint balanceEscrow;\r\n    address public buyer;\r\n    address public seller;\r\n    address public escrow;\r\n    uint private start;\r\n    uint public amount;\r\n    Status escrow_state;\r\n    bool buyerOk;\r\n    bool sellerOk;\r\n    constructor(address buyer_address, address escrow_address, uint escrow_value) public {\r\n        // this is the constructor function that runs ONCE upon initialization\r\n        buyer = buyer_address;\r\n        seller = msg.sender;\r\n        escrow = escrow_address;\r\n        amount = escrow_value;\r\n        start = now; //now is an alias for block.timestamp, not really \"now\"\r\n        escrow_state = new Status(); //state of escrow 0 created, 1 funded, 2 refunded, 3 expired, 4 released\r\n\r\n    }\r\n    function GetStatus() public returns (Status){\r\n      return escrow_state;\r\n\r\n    }\r\n    function accept() public {\r\n        if (msg.sender == buyer){\r\n            buyerOk = true;\r\n        } else if (msg.sender == seller){\r\n            sellerOk = true;\r\n        }\r\n        if (buyerOk && sellerOk){\r\n            payBalance();\r\n        } else if (buyerOk && !sellerOk && now > start + 30 days) {\r\n            // Freeze 30 days before release to buyer. The customer has to remember to call this method after freeze period.\r\n            selfdestruct(buyer);\r\n        }\r\n    }\r\n\r\n    function payBalance() private {\r\n        // we are sending ourselves (contract creator) a fee\r\n        escrow.transfer(this.balance / 100);\r\n        // send seller the balance\r\n        if (seller.send(this.balance)) {\r\n            balance = 0;\r\n            escrow_state.released();\r\n        } else {\r\n            throw;\r\n        }\r\n    }\r\n    function depositEscrow() public payable {\r\n      if(msg.sender == seller){\r\n        balance += msg.value;\r\n      }\r\n\r\n    }\r\n    function deposit() public payable {\r\n        if (msg.sender == buyer) {\r\n            balance += msg.value;\r\n            escrow_state.funded();\r\n        }\r\n    }\r\n\r\n    function cancel() public {\r\n        if (msg.sender == buyer){\r\n            buyerOk = false;\r\n        } else if (msg.sender == seller){\r\n            sellerOk = false;\r\n        }\r\n        // if both buyer and seller would like to cancel, money is returned to buyer\r\n        if (!buyerOk && !sellerOk){\r\n            selfdestruct(buyer);\r\n        }\r\n    }\r\n\r\n    function kill() public constant {\r\n        if (msg.sender == escrow) {\r\n            selfdestruct(buyer);\r\n\r\n        }\r\n    }\r\n}\r\n",
  "sourcePath": "C:\\Users\\Monty\\source\\repos\\EscrowCore\\truffle\\contracts\\escrow.sol",
  "compiler": {
    "name": "solc",
    "version": "0.4.23+commit.124ca40d.Emscripten.clang"
  },
  "schemaVersion": "2.0.0",
  "updatedAt": "2018-05-31T02:05:34.555Z"
}