{
  "contractName": "LocalEthereumEscrows",
  "abi": [
    {
      "constant": true,
      "inputs": [
        {
          "name": "",
          "type": "bytes32"
        }
      ],
      "name": "escrows",
      "outputs": [
        {
          "name": "exists",
          "type": "bool"
        },
        {
          "name": "sellerCanCancelAfter",
          "type": "uint32"
        },
        {
          "name": "totalGasFeesSpentByRelayer",
          "type": "uint128"
        }
      ],
      "payable": false,
      "stateMutability": "view",
      "type": "function"
    },
    {
      "constant": true,
      "inputs": [],
      "name": "requestCancellationMinimumTime",
      "outputs": [
        {
          "name": "",
          "type": "uint32"
        }
      ],
      "payable": false,
      "stateMutability": "view",
      "type": "function"
    },
    {
      "constant": true,
      "inputs": [],
      "name": "arbitrator",
      "outputs": [
        {
          "name": "",
          "type": "address"
        }
      ],
      "payable": false,
      "stateMutability": "view",
      "type": "function"
    },
    {
      "constant": true,
      "inputs": [],
      "name": "relayer",
      "outputs": [
        {
          "name": "",
          "type": "address"
        }
      ],
      "payable": false,
      "stateMutability": "view",
      "type": "function"
    },
    {
      "constant": true,
      "inputs": [],
      "name": "owner",
      "outputs": [
        {
          "name": "",
          "type": "address"
        }
      ],
      "payable": false,
      "stateMutability": "view",
      "type": "function"
    },
    {
      "constant": true,
      "inputs": [],
      "name": "feesAvailableForWithdraw",
      "outputs": [
        {
          "name": "",
          "type": "uint256"
        }
      ],
      "payable": false,
      "stateMutability": "view",
      "type": "function"
    },
    {
      "inputs": [],
      "payable": false,
      "stateMutability": "nonpayable",
      "type": "constructor"
    },
    {
      "anonymous": false,
      "inputs": [
        {
          "indexed": false,
          "name": "_tradeHash",
          "type": "bytes32"
        }
      ],
      "name": "Created",
      "type": "event"
    },
    {
      "anonymous": false,
      "inputs": [
        {
          "indexed": false,
          "name": "_tradeHash",
          "type": "bytes32"
        }
      ],
      "name": "SellerCancelDisabled",
      "type": "event"
    },
    {
      "anonymous": false,
      "inputs": [
        {
          "indexed": false,
          "name": "_tradeHash",
          "type": "bytes32"
        }
      ],
      "name": "SellerRequestedCancel",
      "type": "event"
    },
    {
      "anonymous": false,
      "inputs": [
        {
          "indexed": false,
          "name": "_tradeHash",
          "type": "bytes32"
        }
      ],
      "name": "CancelledBySeller",
      "type": "event"
    },
    {
      "anonymous": false,
      "inputs": [
        {
          "indexed": false,
          "name": "_tradeHash",
          "type": "bytes32"
        }
      ],
      "name": "CancelledByBuyer",
      "type": "event"
    },
    {
      "anonymous": false,
      "inputs": [
        {
          "indexed": false,
          "name": "_tradeHash",
          "type": "bytes32"
        }
      ],
      "name": "Released",
      "type": "event"
    },
    {
      "anonymous": false,
      "inputs": [
        {
          "indexed": false,
          "name": "_tradeHash",
          "type": "bytes32"
        }
      ],
      "name": "DisputeResolved",
      "type": "event"
    },
    {
      "constant": false,
      "inputs": [
        {
          "name": "_tradeID",
          "type": "bytes16"
        },
        {
          "name": "_seller",
          "type": "address"
        },
        {
          "name": "_buyer",
          "type": "address"
        },
        {
          "name": "_value",
          "type": "uint256"
        },
        {
          "name": "_fee",
          "type": "uint16"
        },
        {
          "name": "_paymentWindowInSeconds",
          "type": "uint32"
        },
        {
          "name": "_expiry",
          "type": "uint32"
        },
        {
          "name": "_v",
          "type": "uint8"
        },
        {
          "name": "_r",
          "type": "bytes32"
        },
        {
          "name": "_s",
          "type": "bytes32"
        }
      ],
      "name": "createEscrow",
      "outputs": [],
      "payable": true,
      "stateMutability": "payable",
      "type": "function"
    },
    {
      "constant": false,
      "inputs": [
        {
          "name": "_tradeID",
          "type": "bytes16"
        },
        {
          "name": "_seller",
          "type": "address"
        },
        {
          "name": "_buyer",
          "type": "address"
        },
        {
          "name": "_value",
          "type": "uint256"
        },
        {
          "name": "_fee",
          "type": "uint16"
        },
        {
          "name": "_v",
          "type": "uint8"
        },
        {
          "name": "_r",
          "type": "bytes32"
        },
        {
          "name": "_s",
          "type": "bytes32"
        },
        {
          "name": "_buyerPercent",
          "type": "uint8"
        }
      ],
      "name": "resolveDispute",
      "outputs": [],
      "payable": false,
      "stateMutability": "nonpayable",
      "type": "function"
    },
    {
      "constant": false,
      "inputs": [
        {
          "name": "_tradeID",
          "type": "bytes16"
        },
        {
          "name": "_seller",
          "type": "address"
        },
        {
          "name": "_buyer",
          "type": "address"
        },
        {
          "name": "_value",
          "type": "uint256"
        },
        {
          "name": "_fee",
          "type": "uint16"
        }
      ],
      "name": "release",
      "outputs": [
        {
          "name": "",
          "type": "bool"
        }
      ],
      "payable": false,
      "stateMutability": "nonpayable",
      "type": "function"
    },
    {
      "constant": false,
      "inputs": [
        {
          "name": "_tradeID",
          "type": "bytes16"
        },
        {
          "name": "_seller",
          "type": "address"
        },
        {
          "name": "_buyer",
          "type": "address"
        },
        {
          "name": "_value",
          "type": "uint256"
        },
        {
          "name": "_fee",
          "type": "uint16"
        }
      ],
      "name": "disableSellerCancel",
      "outputs": [
        {
          "name": "",
          "type": "bool"
        }
      ],
      "payable": false,
      "stateMutability": "nonpayable",
      "type": "function"
    },
    {
      "constant": false,
      "inputs": [
        {
          "name": "_tradeID",
          "type": "bytes16"
        },
        {
          "name": "_seller",
          "type": "address"
        },
        {
          "name": "_buyer",
          "type": "address"
        },
        {
          "name": "_value",
          "type": "uint256"
        },
        {
          "name": "_fee",
          "type": "uint16"
        }
      ],
      "name": "buyerCancel",
      "outputs": [
        {
          "name": "",
          "type": "bool"
        }
      ],
      "payable": false,
      "stateMutability": "nonpayable",
      "type": "function"
    },
    {
      "constant": false,
      "inputs": [
        {
          "name": "_tradeID",
          "type": "bytes16"
        },
        {
          "name": "_seller",
          "type": "address"
        },
        {
          "name": "_buyer",
          "type": "address"
        },
        {
          "name": "_value",
          "type": "uint256"
        },
        {
          "name": "_fee",
          "type": "uint16"
        }
      ],
      "name": "sellerCancel",
      "outputs": [
        {
          "name": "",
          "type": "bool"
        }
      ],
      "payable": false,
      "stateMutability": "nonpayable",
      "type": "function"
    },
    {
      "constant": false,
      "inputs": [
        {
          "name": "_tradeID",
          "type": "bytes16"
        },
        {
          "name": "_seller",
          "type": "address"
        },
        {
          "name": "_buyer",
          "type": "address"
        },
        {
          "name": "_value",
          "type": "uint256"
        },
        {
          "name": "_fee",
          "type": "uint16"
        }
      ],
      "name": "sellerRequestCancel",
      "outputs": [
        {
          "name": "",
          "type": "bool"
        }
      ],
      "payable": false,
      "stateMutability": "nonpayable",
      "type": "function"
    },
    {
      "constant": false,
      "inputs": [
        {
          "name": "_tradeID",
          "type": "bytes16"
        },
        {
          "name": "_seller",
          "type": "address"
        },
        {
          "name": "_buyer",
          "type": "address"
        },
        {
          "name": "_value",
          "type": "uint256"
        },
        {
          "name": "_fee",
          "type": "uint16"
        },
        {
          "name": "_maximumGasPrice",
          "type": "uint128"
        },
        {
          "name": "_v",
          "type": "uint8"
        },
        {
          "name": "_r",
          "type": "bytes32"
        },
        {
          "name": "_s",
          "type": "bytes32"
        }
      ],
      "name": "relaySellerCannotCancel",
      "outputs": [
        {
          "name": "",
          "type": "bool"
        }
      ],
      "payable": false,
      "stateMutability": "nonpayable",
      "type": "function"
    },
    {
      "constant": false,
      "inputs": [
        {
          "name": "_tradeID",
          "type": "bytes16"
        },
        {
          "name": "_seller",
          "type": "address"
        },
        {
          "name": "_buyer",
          "type": "address"
        },
        {
          "name": "_value",
          "type": "uint256"
        },
        {
          "name": "_fee",
          "type": "uint16"
        },
        {
          "name": "_maximumGasPrice",
          "type": "uint128"
        },
        {
          "name": "_v",
          "type": "uint8"
        },
        {
          "name": "_r",
          "type": "bytes32"
        },
        {
          "name": "_s",
          "type": "bytes32"
        }
      ],
      "name": "relayBuyerCancel",
      "outputs": [
        {
          "name": "",
          "type": "bool"
        }
      ],
      "payable": false,
      "stateMutability": "nonpayable",
      "type": "function"
    },
    {
      "constant": false,
      "inputs": [
        {
          "name": "_tradeID",
          "type": "bytes16"
        },
        {
          "name": "_seller",
          "type": "address"
        },
        {
          "name": "_buyer",
          "type": "address"
        },
        {
          "name": "_value",
          "type": "uint256"
        },
        {
          "name": "_fee",
          "type": "uint16"
        },
        {
          "name": "_maximumGasPrice",
          "type": "uint128"
        },
        {
          "name": "_v",
          "type": "uint8"
        },
        {
          "name": "_r",
          "type": "bytes32"
        },
        {
          "name": "_s",
          "type": "bytes32"
        }
      ],
      "name": "relayRelease",
      "outputs": [
        {
          "name": "",
          "type": "bool"
        }
      ],
      "payable": false,
      "stateMutability": "nonpayable",
      "type": "function"
    },
    {
      "constant": false,
      "inputs": [
        {
          "name": "_tradeID",
          "type": "bytes16"
        },
        {
          "name": "_seller",
          "type": "address"
        },
        {
          "name": "_buyer",
          "type": "address"
        },
        {
          "name": "_value",
          "type": "uint256"
        },
        {
          "name": "_fee",
          "type": "uint16"
        },
        {
          "name": "_maximumGasPrice",
          "type": "uint128"
        },
        {
          "name": "_v",
          "type": "uint8"
        },
        {
          "name": "_r",
          "type": "bytes32"
        },
        {
          "name": "_s",
          "type": "bytes32"
        }
      ],
      "name": "relaySellerCancel",
      "outputs": [
        {
          "name": "",
          "type": "bool"
        }
      ],
      "payable": false,
      "stateMutability": "nonpayable",
      "type": "function"
    },
    {
      "constant": false,
      "inputs": [
        {
          "name": "_tradeID",
          "type": "bytes16"
        },
        {
          "name": "_seller",
          "type": "address"
        },
        {
          "name": "_buyer",
          "type": "address"
        },
        {
          "name": "_value",
          "type": "uint256"
        },
        {
          "name": "_fee",
          "type": "uint16"
        },
        {
          "name": "_maximumGasPrice",
          "type": "uint128"
        },
        {
          "name": "_v",
          "type": "uint8"
        },
        {
          "name": "_r",
          "type": "bytes32"
        },
        {
          "name": "_s",
          "type": "bytes32"
        }
      ],
      "name": "relaySellerRequestCancel",
      "outputs": [
        {
          "name": "",
          "type": "bool"
        }
      ],
      "payable": false,
      "stateMutability": "nonpayable",
      "type": "function"
    },
    {
      "constant": false,
      "inputs": [
        {
          "name": "_tradeID",
          "type": "bytes16[]"
        },
        {
          "name": "_seller",
          "type": "address[]"
        },
        {
          "name": "_buyer",
          "type": "address[]"
        },
        {
          "name": "_value",
          "type": "uint256[]"
        },
        {
          "name": "_fee",
          "type": "uint16[]"
        },
        {
          "name": "_maximumGasPrice",
          "type": "uint128[]"
        },
        {
          "name": "_v",
          "type": "uint8[]"
        },
        {
          "name": "_r",
          "type": "bytes32[]"
        },
        {
          "name": "_s",
          "type": "bytes32[]"
        },
        {
          "name": "_actionByte",
          "type": "uint8[]"
        }
      ],
      "name": "batchRelay",
      "outputs": [
        {
          "name": "",
          "type": "bool[]"
        }
      ],
      "payable": false,
      "stateMutability": "nonpayable",
      "type": "function"
    },
    {
      "constant": false,
      "inputs": [
        {
          "name": "_to",
          "type": "address"
        },
        {
          "name": "_amount",
          "type": "uint256"
        }
      ],
      "name": "withdrawFees",
      "outputs": [],
      "payable": false,
      "stateMutability": "nonpayable",
      "type": "function"
    },
    {
      "constant": false,
      "inputs": [
        {
          "name": "_newArbitrator",
          "type": "address"
        }
      ],
      "name": "setArbitrator",
      "outputs": [],
      "payable": false,
      "stateMutability": "nonpayable",
      "type": "function"
    },
    {
      "constant": false,
      "inputs": [
        {
          "name": "_newOwner",
          "type": "address"
        }
      ],
      "name": "setOwner",
      "outputs": [],
      "payable": false,
      "stateMutability": "nonpayable",
      "type": "function"
    },
    {
      "constant": false,
      "inputs": [
        {
          "name": "_newRelayer",
          "type": "address"
        }
      ],
      "name": "setRelayer",
      "outputs": [],
      "payable": false,
      "stateMutability": "nonpayable",
      "type": "function"
    },
    {
      "constant": false,
      "inputs": [
        {
          "name": "_newRequestCancellationMinimumTime",
          "type": "uint32"
        }
      ],
      "name": "setRequestCancellationMinimumTime",
      "outputs": [],
      "payable": false,
      "stateMutability": "nonpayable",
      "type": "function"
    },
    {
      "constant": false,
      "inputs": [
        {
          "name": "_tokenContract",
          "type": "address"
        },
        {
          "name": "_transferTo",
          "type": "address"
        },
        {
          "name": "_value",
          "type": "uint256"
        }
      ],
      "name": "transferToken",
      "outputs": [],
      "payable": false,
      "stateMutability": "nonpayable",
      "type": "function"
    },
    {
      "constant": false,
      "inputs": [
        {
          "name": "_tokenContract",
          "type": "address"
        },
        {
          "name": "_transferTo",
          "type": "address"
        },
        {
          "name": "_transferFrom",
          "type": "address"
        },
        {
          "name": "_value",
          "type": "uint256"
        }
      ],
      "name": "transferTokenFrom",
      "outputs": [],
      "payable": false,
      "stateMutability": "nonpayable",
      "type": "function"
    },
    {
      "constant": false,
      "inputs": [
        {
          "name": "_tokenContract",
          "type": "address"
        },
        {
          "name": "_spender",
          "type": "address"
        },
        {
          "name": "_value",
          "type": "uint256"
        }
      ],
      "name": "approveToken",
      "outputs": [],
      "payable": false,
      "stateMutability": "nonpayable",
      "type": "function"
    }
  ],
  "bytecode": "0x608060405234801561001057600080fd5b5033600160006101000a81548173ffffffffffffffffffffffffffffffffffffffff021916908373ffffffffffffffffffffffffffffffffffffffff160217905550336000806101000a81548173ffffffffffffffffffffffffffffffffffffffff021916908373ffffffffffffffffffffffffffffffffffffffff16021790555033600260006101000a81548173ffffffffffffffffffffffffffffffffffffffff021916908373ffffffffffffffffffffffffffffffffffffffff160217905550611c20600260146101000a81548163ffffffff021916908363ffffffff16021790555061344a806101056000396000f30060806040526004361061015f576000357c0100000000000000000000000000000000000000000000000000000000900463ffffffff168063036c36eb1461016457806305b649931461025957806313af40351461028c57806324943c7d146102cf5780632cc9636c1461039d5780632d83549c1461044d57806331d36cf0146104d457806335adc0c5146105c9578063520c3db71461067957806357938b2a1461076e5780635c810f09146107a55780636548e9bc146108555780636b407837146108985780636cc6cde1146109485780638406c0791461099f5780638da5cb5b146109f65780638eb4e0ad14610a4d578063a246d83b14610d63578063ad3b1b4714610e58578063b0eefabe14610ea5578063d81d506214610ee8578063da3e339714610fdd578063de5785d51461104a578063e599490514611075578063e9600f1214611102578063f1e03d67146111b2578063f5537ede14611286575b600080fd5b34801561017057600080fd5b5061023f60048036038101908080356fffffffffffffffffffffffffffffffff19169060200190929190803573ffffffffffffffffffffffffffffffffffffffff169060200190929190803573ffffffffffffffffffffffffffffffffffffffff16906020019092919080359060200190929190803561ffff16906020019092919080356fffffffffffffffffffffffffffffffff169060200190929190803560ff169060200190929190803560001916906020019092919080356000191690602001909291905050506112f3565b604051808215151515815260200191505060405180910390f35b34801561026557600080fd5b5061028a600480360381019080803563ffffffff169060200190929190505050611319565b005b34801561029857600080fd5b506102cd600480360381019080803573ffffffffffffffffffffffffffffffffffffffff169060200190929190505050611399565b005b3480156102db57600080fd5b5061039b60048036038101908080356fffffffffffffffffffffffffffffffff19169060200190929190803573ffffffffffffffffffffffffffffffffffffffff169060200190929190803573ffffffffffffffffffffffffffffffffffffffff16906020019092919080359060200190929190803561ffff169060200190929190803560ff16906020019092919080356000191690602001909291908035600019169060200190929190803560ff169060200190929190505050611439565b005b3480156103a957600080fd5b5061043360048036038101908080356fffffffffffffffffffffffffffffffff19169060200190929190803573ffffffffffffffffffffffffffffffffffffffff169060200190929190803573ffffffffffffffffffffffffffffffffffffffff16906020019092919080359060200190929190803561ffff1690602001909291905050506117e7565b604051808215151515815260200191505060405180910390f35b34801561045957600080fd5b5061047c600480360381019080803560001916906020019092919050505061183d565b60405180841515151581526020018363ffffffff1663ffffffff168152602001826fffffffffffffffffffffffffffffffff166fffffffffffffffffffffffffffffffff168152602001935050505060405180910390f35b3480156104e057600080fd5b506105af60048036038101908080356fffffffffffffffffffffffffffffffff19169060200190929190803573ffffffffffffffffffffffffffffffffffffffff169060200190929190803573ffffffffffffffffffffffffffffffffffffffff16906020019092919080359060200190929190803561ffff16906020019092919080356fffffffffffffffffffffffffffffffff169060200190929190803560ff169060200190929190803560001916906020019092919080356000191690602001909291905050506118a0565b604051808215151515815260200191505060405180910390f35b3480156105d557600080fd5b5061065f60048036038101908080356fffffffffffffffffffffffffffffffff19169060200190929190803573ffffffffffffffffffffffffffffffffffffffff169060200190929190803573ffffffffffffffffffffffffffffffffffffffff16906020019092919080359060200190929190803561ffff1690602001909291905050506118c6565b604051808215151515815260200191505060405180910390f35b34801561068557600080fd5b5061075460048036038101908080356fffffffffffffffffffffffffffffffff19169060200190929190803573ffffffffffffffffffffffffffffffffffffffff169060200190929190803573ffffffffffffffffffffffffffffffffffffffff16906020019092919080359060200190929190803561ffff16906020019092919080356fffffffffffffffffffffffffffffffff169060200190929190803560ff1690602001909291908035600019169060200190929190803560001916906020019092919050505061191c565b604051808215151515815260200191505060405180910390f35b34801561077a57600080fd5b50610783611942565b604051808263ffffffff1663ffffffff16815260200191505060405180910390f35b3480156107b157600080fd5b5061083b60048036038101908080356fffffffffffffffffffffffffffffffff19169060200190929190803573ffffffffffffffffffffffffffffffffffffffff169060200190929190803573ffffffffffffffffffffffffffffffffffffffff16906020019092919080359060200190929190803561ffff169060200190929190505050611958565b604051808215151515815260200191505060405180910390f35b34801561086157600080fd5b50610896600480360381019080803573ffffffffffffffffffffffffffffffffffffffff1690602001909291905050506119ae565b005b3480156108a457600080fd5b5061092e60048036038101908080356fffffffffffffffffffffffffffffffff19169060200190929190803573ffffffffffffffffffffffffffffffffffffffff169060200190929190803573ffffffffffffffffffffffffffffffffffffffff16906020019092919080359060200190929190803561ffff169060200190929190505050611a4e565b604051808215151515815260200191505060405180910390f35b34801561095457600080fd5b5061095d611aa4565b604051808273ffffffffffffffffffffffffffffffffffffffff1673ffffffffffffffffffffffffffffffffffffffff16815260200191505060405180910390f35b3480156109ab57600080fd5b506109b4611ac9565b604051808273ffffffffffffffffffffffffffffffffffffffff1673ffffffffffffffffffffffffffffffffffffffff16815260200191505060405180910390f35b348015610a0257600080fd5b50610a0b611aef565b604051808273ffffffffffffffffffffffffffffffffffffffff1673ffffffffffffffffffffffffffffffffffffffff16815260200191505060405180910390f35b348015610a5957600080fd5b50610d0c60048036038101908080359060200190820180359060200190808060200260200160405190810160405280939291908181526020018383602002808284378201915050505050509192919290803590602001908201803590602001908080602002602001604051908101604052809392919081815260200183836020028082843782019150505050505091929192908035906020019082018035906020019080806020026020016040519081016040528093929190818152602001838360200280828437820191505050505050919291929080359060200190820180359060200190808060200260200160405190810160405280939291908181526020018383602002808284378201915050505050509192919290803590602001908201803590602001908080602002602001604051908101604052809392919081815260200183836020028082843782019150505050505091929192908035906020019082018035906020019080806020026020016040519081016040528093929190818152602001838360200280828437820191505050505050919291929080359060200190820180359060200190808060200260200160405190810160405280939291908181526020018383602002808284378201915050505050509192919290803590602001908201803590602001908080602002602001604051908101604052809392919081815260200183836020028082843782019150505050505091929192908035906020019082018035906020019080806020026020016040519081016040528093929190818152602001838360200280828437820191505050505050919291929080359060200190820180359060200190808060200260200160405190810160405280939291908181526020018383602002808284378201915050505050509192919290505050611b15565b6040518080602001828103825283818151815260200191508051906020019060200280838360005b83811015610d4f578082015181840152602081019050610d34565b505050509050019250505060405180910390f35b348015610d6f57600080fd5b50610e3e60048036038101908080356fffffffffffffffffffffffffffffffff19169060200190929190803573ffffffffffffffffffffffffffffffffffffffff169060200190929190803573ffffffffffffffffffffffffffffffffffffffff16906020019092919080359060200190929190803561ffff16906020019092919080356fffffffffffffffffffffffffffffffff169060200190929190803560ff16906020019092919080356000191690602001909291908035600019169060200190929190505050611d2e565b604051808215151515815260200191505060405180910390f35b348015610e6457600080fd5b50610ea3600480360381019080803573ffffffffffffffffffffffffffffffffffffffff16906020019092919080359060200190929190505050611d54565b005b348015610eb157600080fd5b50610ee6600480360381019080803573ffffffffffffffffffffffffffffffffffffffff169060200190929190505050611e1c565b005b348015610ef457600080fd5b50610fc360048036038101908080356fffffffffffffffffffffffffffffffff19169060200190929190803573ffffffffffffffffffffffffffffffffffffffff169060200190929190803573ffffffffffffffffffffffffffffffffffffffff16906020019092919080359060200190929190803561ffff16906020019092919080356fffffffffffffffffffffffffffffffff169060200190929190803560ff16906020019092919080356000191690602001909291908035600019169060200190929190505050611ebb565b604051808215151515815260200191505060405180910390f35b348015610fe957600080fd5b50611048600480360381019080803573ffffffffffffffffffffffffffffffffffffffff169060200190929190803573ffffffffffffffffffffffffffffffffffffffff16906020019092919080359060200190929190505050611ee1565b005b34801561105657600080fd5b5061105f612021565b6040518082815260200191505060405180910390f35b34801561108157600080fd5b50611100600480360381019080803573ffffffffffffffffffffffffffffffffffffffff169060200190929190803573ffffffffffffffffffffffffffffffffffffffff169060200190929190803573ffffffffffffffffffffffffffffffffffffffff16906020019092919080359060200190929190505050612027565b005b34801561110e57600080fd5b5061119860048036038101908080356fffffffffffffffffffffffffffffffff19169060200190929190803573ffffffffffffffffffffffffffffffffffffffff169060200190929190803573ffffffffffffffffffffffffffffffffffffffff16906020019092919080359060200190929190803561ffff16906020019092919050505061219c565b604051808215151515815260200191505060405180910390f35b61128460048036038101908080356fffffffffffffffffffffffffffffffff19169060200190929190803573ffffffffffffffffffffffffffffffffffffffff169060200190929190803573ffffffffffffffffffffffffffffffffffffffff16906020019092919080359060200190929190803561ffff169060200190929190803563ffffffff169060200190929190803563ffffffff169060200190929190803560ff169060200190929190803560001916906020019092919080356000191690602001909291905050506121f2565b005b34801561129257600080fd5b506112f1600480360381019080803573ffffffffffffffffffffffffffffffffffffffff169060200190929190803573ffffffffffffffffffffffffffffffffffffffff169060200190929190803590602001909291905050506125fb565b005b600061130a8a8a8a8a8a8a8a8a8a6004600061273b565b90509998505050505050505050565b600160009054906101000a900473ffffffffffffffffffffffffffffffffffffffff1673ffffffffffffffffffffffffffffffffffffffff163373ffffffffffffffffffffffffffffffffffffffff1614151561137557600080fd5b80600260146101000a81548163ffffffff021916908363ffffffff16021790555050565b600160009054906101000a900473ffffffffffffffffffffffffffffffffffffffff1673ffffffffffffffffffffffffffffffffffffffff163373ffffffffffffffffffffffffffffffffffffffff161415156113f557600080fd5b80600160006101000a81548173ffffffffffffffffffffffffffffffffffffffff021916908373ffffffffffffffffffffffffffffffffffffffff16021790555050565b60006114436133e2565b6000806000809054906101000a900473ffffffffffffffffffffffffffffffffffffffff1673ffffffffffffffffffffffffffffffffffffffff163373ffffffffffffffffffffffffffffffffffffffff161415156114a157600080fd5b60018d600660405180836fffffffffffffffffffffffffffffffff19166fffffffffffffffffffffffffffffffff191681526010018260ff1660ff167f0100000000000000000000000000000000000000000000000000000000000000028152600101925050506040518091039020898989604051600081526020016040526040518085600019166000191681526020018460ff1660ff1681526020018360001916600019168152602001826000191660001916815260200194505050505060206040516020810390808403906000865af1158015611584573d6000803e3d6000fd5b5050506020604051035193508a73ffffffffffffffffffffffffffffffffffffffff168473ffffffffffffffffffffffffffffffffffffffff1614806115f557508b73ffffffffffffffffffffffffffffffffffffffff168473ffffffffffffffffffffffffffffffffffffffff16145b151561160057600080fd5b61160d8d8d8d8d8d61288f565b925092508260000151151561162157600080fd5b60648560ff161115151561163457600080fd5b618d0461ffff168360400151016fffffffffffffffffffffffffffffffff16905089818b031115151561166657600080fd5b80600360008282540192505081905550600460008360001916600019168152602001908152602001600020600080820160006101000a81549060ff02191690556000820160016101000a81549063ffffffff02191690556000820160056101000a8154906fffffffffffffffffffffffffffffffff021916905550507f65e0c7182ce84cd9087c1b07dc4b65875578877b885848e4be19ee312f2c3d318260405180826000191660001916815260200191505060405180910390a18a73ffffffffffffffffffffffffffffffffffffffff166108fc60648760ff16848e030281151561174e57fe5b049081150290604051600060405180830381858888f1935050505015801561177a573d6000803e3d6000fd5b508b73ffffffffffffffffffffffffffffffffffffffff166108fc60648760640360ff16848e03028115156117ab57fe5b049081150290604051600060405180830381858888f193505050501580156117d7573d6000803e3d6000fd5b5050505050505050505050505050565b60008373ffffffffffffffffffffffffffffffffffffffff163373ffffffffffffffffffffffffffffffffffffffff1614151561182357600080fd5b61183286868686866000612a5c565b905095945050505050565b60046020528060005260406000206000915090508060000160009054906101000a900460ff16908060000160019054906101000a900463ffffffff16908060000160059054906101000a90046fffffffffffffffffffffffffffffffff16905083565b60006118b78a8a8a8a8a8a8a8a8a6003600061273b565b90509998505050505050505050565b60008473ffffffffffffffffffffffffffffffffffffffff163373ffffffffffffffffffffffffffffffffffffffff1614151561190257600080fd5b61191186868686866000612bc8565b905095945050505050565b60006119338a8a8a8a8a8a8a8a8a6005600061273b565b90509998505050505050505050565b600260149054906101000a900463ffffffff1681565b60008373ffffffffffffffffffffffffffffffffffffffff163373ffffffffffffffffffffffffffffffffffffffff1614151561199457600080fd5b6119a386868686866000612d65565b905095945050505050565b600160009054906101000a900473ffffffffffffffffffffffffffffffffffffffff1673ffffffffffffffffffffffffffffffffffffffff163373ffffffffffffffffffffffffffffffffffffffff16141515611a0a57600080fd5b80600260006101000a81548173ffffffffffffffffffffffffffffffffffffffff021916908373ffffffffffffffffffffffffffffffffffffffff16021790555050565b60008473ffffffffffffffffffffffffffffffffffffffff163373ffffffffffffffffffffffffffffffffffffffff16141515611a8a57600080fd5b611a9986868686866000612ea9565b905095945050505050565b6000809054906101000a900473ffffffffffffffffffffffffffffffffffffffff1681565b600260009054906101000a900473ffffffffffffffffffffffffffffffffffffffff1681565b600160009054906101000a900473ffffffffffffffffffffffffffffffffffffffff1681565b6060806000808d51604051908082528060200260200182016040528015611b4b5781602001602082028038833980820191505090505b509250600260009054906101000a900473ffffffffffffffffffffffffffffffffffffffff1673ffffffffffffffffffffffffffffffffffffffff163373ffffffffffffffffffffffffffffffffffffffff1614611baa576000611bbe565b8d51616f5461ffff16811515611bbc57fe5b045b9150600090505b8d518160ff161015611d1a57611ce88e8260ff16815181101515611be557fe5b906020019060200201518e8360ff16815181101515611c0057fe5b906020019060200201518e8460ff16815181101515611c1b57fe5b906020019060200201518e8560ff16815181101515611c3657fe5b906020019060200201518e8660ff16815181101515611c5157fe5b906020019060200201518e8760ff16815181101515611c6c57fe5b906020019060200201518e8860ff16815181101515611c8757fe5b906020019060200201518e8960ff16815181101515611ca257fe5b906020019060200201518e8a60ff16815181101515611cbd57fe5b906020019060200201518e8b60ff16815181101515611cd857fe5b906020019060200201518c61273b565b838260ff16815181101515611cf957fe5b90602001906020020190151590811515815250508080600101915050611bc5565b8293505050509a9950505050505050505050565b6000611d458a8a8a8a8a8a8a8a8a6001600061273b565b90509998505050505050505050565b600160009054906101000a900473ffffffffffffffffffffffffffffffffffffffff1673ffffffffffffffffffffffffffffffffffffffff163373ffffffffffffffffffffffffffffffffffffffff16141515611db057600080fd5b6003548111151515611dc157600080fd5b806003600082825403925050819055508173ffffffffffffffffffffffffffffffffffffffff166108fc829081150290604051600060405180830381858888f19350505050158015611e17573d6000803e3d6000fd5b505050565b600160009054906101000a900473ffffffffffffffffffffffffffffffffffffffff1673ffffffffffffffffffffffffffffffffffffffff163373ffffffffffffffffffffffffffffffffffffffff16141515611e7857600080fd5b806000806101000a81548173ffffffffffffffffffffffffffffffffffffffff021916908373ffffffffffffffffffffffffffffffffffffffff16021790555050565b6000611ed28a8a8a8a8a8a8a8a8a6002600061273b565b90509998505050505050505050565b600160009054906101000a900473ffffffffffffffffffffffffffffffffffffffff1673ffffffffffffffffffffffffffffffffffffffff163373ffffffffffffffffffffffffffffffffffffffff16141515611f3d57600080fd5b8273ffffffffffffffffffffffffffffffffffffffff1663095ea7b383836040518363ffffffff167c0100000000000000000000000000000000000000000000000000000000028152600401808373ffffffffffffffffffffffffffffffffffffffff1673ffffffffffffffffffffffffffffffffffffffff16815260200182815260200192505050602060405180830381600087803b158015611fe057600080fd5b505af1158015611ff4573d6000803e3d6000fd5b505050506040513d602081101561200a57600080fd5b810190808051906020019092919050505050505050565b60035481565b600160009054906101000a900473ffffffffffffffffffffffffffffffffffffffff1673ffffffffffffffffffffffffffffffffffffffff163373ffffffffffffffffffffffffffffffffffffffff1614151561208357600080fd5b8373ffffffffffffffffffffffffffffffffffffffff166323b872dd8484846040518463ffffffff167c0100000000000000000000000000000000000000000000000000000000028152600401808473ffffffffffffffffffffffffffffffffffffffff1673ffffffffffffffffffffffffffffffffffffffff1681526020018373ffffffffffffffffffffffffffffffffffffffff1673ffffffffffffffffffffffffffffffffffffffff1681526020018281526020019350505050602060405180830381600087803b15801561215a57600080fd5b505af115801561216e573d6000803e3d6000fd5b505050506040513d602081101561218457600080fd5b81019080805190602001909291905050505050505050565b60008473ffffffffffffffffffffffffffffffffffffffff163373ffffffffffffffffffffffffffffffffffffffff161415156121d857600080fd5b6121e786868686866000613001565b905095945050505050565b6000808b8b8b8b8b60405180866fffffffffffffffffffffffffffffffff19166fffffffffffffffffffffffffffffffff191681526010018573ffffffffffffffffffffffffffffffffffffffff1673ffffffffffffffffffffffffffffffffffffffff166c010000000000000000000000000281526014018473ffffffffffffffffffffffffffffffffffffffff1673ffffffffffffffffffffffffffffffffffffffff166c010000000000000000000000000281526014018381526020018261ffff1661ffff167e01000000000000000000000000000000000000000000000000000000000000028152600201955050505050506040518091039020915060046000836000191660001916815260200190815260200160002060000160009054906101000a900460ff1615151561232a57600080fd5b600260009054906101000a900473ffffffffffffffffffffffffffffffffffffffff1673ffffffffffffffffffffffffffffffffffffffff1660018389896040518084600019166000191681526020018363ffffffff1663ffffffff167c01000000000000000000000000000000000000000000000000000000000281526004018263ffffffff1663ffffffff167c010000000000000000000000000000000000000000000000000000000002815260040193505050506040518091039020878787604051600081526020016040526040518085600019166000191681526020018460ff1660ff1681526020018360001916600019168152602001826000191660001916815260200194505050505060206040516020810390808403906000865af115801561245d573d6000803e3d6000fd5b5050506020604051035173ffffffffffffffffffffffffffffffffffffffff1614151561248957600080fd5b8563ffffffff164210151561249d57600080fd5b88341480156124ac5750600034115b15156124b757600080fd5b60008763ffffffff16146124cd578642016124d0565b60015b90506060604051908101604052806001151581526020018263ffffffff16815260200160006fffffffffffffffffffffffffffffffff1681525060046000846000191660001916815260200190815260200160002060008201518160000160006101000a81548160ff02191690831515021790555060208201518160000160016101000a81548163ffffffff021916908363ffffffff16021790555060408201518160000160056101000a8154816fffffffffffffffffffffffffffffffff02191690836fffffffffffffffffffffffffffffffff1602179055509050507f102d25c49d33fcdb8976a3f2744e0785c98d9e43b88364859e6aec4ae82eff5c8260405180826000191660001916815260200191505060405180910390a1505050505050505050505050565b600160009054906101000a900473ffffffffffffffffffffffffffffffffffffffff1673ffffffffffffffffffffffffffffffffffffffff163373ffffffffffffffffffffffffffffffffffffffff1614151561265757600080fd5b8273ffffffffffffffffffffffffffffffffffffffff1663a9059cbb83836040518363ffffffff167c0100000000000000000000000000000000000000000000000000000000028152600401808373ffffffffffffffffffffffffffffffffffffffff1673ffffffffffffffffffffffffffffffffffffffff16815260200182815260200192505050602060405180830381600087803b1580156126fa57600080fd5b505af115801561270e573d6000803e3d6000fd5b505050506040513d602081101561272457600080fd5b810190808051906020019092919050505050505050565b60008061274c8d858a8a8a8a61316c565b90508a73ffffffffffffffffffffffffffffffffffffffff168173ffffffffffffffffffffffffffffffffffffffff1614156127cf57600160ff168460ff1614156127a65761279f8d8d8d8d8d88612d65565b915061287f565b600260ff168460ff1614156127ca576127c38d8d8d8d8d88612a5c565b915061287f565b61287e565b8b73ffffffffffffffffffffffffffffffffffffffff168173ffffffffffffffffffffffffffffffffffffffff16141561287457600560ff168460ff161415612827576128208d8d8d8d8d88613001565b915061287f565b600360ff168460ff16141561284b576128448d8d8d8d8d88612bc8565b915061287f565b600460ff168460ff16141561286f576128688d8d8d8d8d88612ea9565b915061287f565b61287d565b6000915061287f565b5b5b509b9a5050505050505050505050565b6128976133e2565b600080878787878760405180866fffffffffffffffffffffffffffffffff19166fffffffffffffffffffffffffffffffff191681526010018573ffffffffffffffffffffffffffffffffffffffff1673ffffffffffffffffffffffffffffffffffffffff166c010000000000000000000000000281526014018473ffffffffffffffffffffffffffffffffffffffff1673ffffffffffffffffffffffffffffffffffffffff166c010000000000000000000000000281526014018381526020018261ffff1661ffff167e0100000000000000000000000000000000000000000000000000000000000002815260020195505050505050604051809103902090506004600082600019166000191681526020019081526020016000208181606060405190810160405290816000820160009054906101000a900460ff161515151581526020016000820160019054906101000a900463ffffffff1663ffffffff1663ffffffff1681526020016000820160059054906101000a90046fffffffffffffffffffffffffffffffff166fffffffffffffffffffffffffffffffff166fffffffffffffffffffffffffffffffff1681525050915092509250509550959350505050565b6000612a666133e2565b600080612a768a8a8a8a8a61288f565b9250925082600001511515612a8e5760009350612bbb565b600260009054906101000a900473ffffffffffffffffffffffffffffffffffffffff1673ffffffffffffffffffffffffffffffffffffffff163373ffffffffffffffffffffffffffffffffffffffff1614612aea576000612af6565b3a85618d0461ffff1601025b8360400151019050600460008360001916600019168152602001908152602001600020600080820160006101000a81549060ff02191690556000820160016101000a81549063ffffffff02191690556000820160056101000a8154906fffffffffffffffffffffffffffffffff021916905550507fd9b627ddaa414e8e6c82366cc9c179f6281d73968827cc17038a56852e28ac8b8260405180826000191660001916815260200191505060405180910390a1612bb689888360006132ca565b600193505b5050509695505050505050565b6000612bd26133e2565b600080612be28a8a8a8a8a61288f565b9250925082600001511515612bfa5760009350612d58565b6001836020015163ffffffff16111580612c1d575042836020015163ffffffff16115b15612c2b5760009350612d58565b600260009054906101000a900473ffffffffffffffffffffffffffffffffffffffff1673ffffffffffffffffffffffffffffffffffffffff163373ffffffffffffffffffffffffffffffffffffffff1614612c87576000612c93565b3a85618d0461ffff1601025b8360400151019050600460008360001916600019168152602001908152602001600020600080820160006101000a81549060ff02191690556000820160016101000a81549063ffffffff02191690556000820160056101000a8154906fffffffffffffffffffffffffffffffff021916905550507f366d2b4e6cc37ecebb3d7d41df6d581634fd8137412710a1e086e4ca4656bb588260405180826000191660001916815260200191505060405180910390a1612d5389888360006132ca565b600193505b5050509695505050505050565b6000612d6f6133e2565b6000612d7e898989898961288f565b9150915081600001511515612d965760009250612e9d565b6000826020015163ffffffff161415612db25760009250612e9d565b600060046000836000191660001916815260200190815260200160002060000160016101000a81548163ffffffff021916908363ffffffff1602179055507fe95fa7985c7585e90dab2dc46470726468662be06f67d79a31a5012e4bc0edeb8160405180826000191660001916815260200191505060405180910390a1600260009054906101000a900473ffffffffffffffffffffffffffffffffffffffff1673ffffffffffffffffffffffffffffffffffffffff163373ffffffffffffffffffffffffffffffffffffffff161415612e9857612e978185612f4461ffff1601613366565b5b600192505b50509695505050505050565b6000612eb36133e2565b6000612ec2898989898961288f565b9150915081600001511515612eda5760009250612ff5565b6001826020015163ffffffff16141515612ef75760009250612ff5565b600260149054906101000a900463ffffffff16420160046000836000191660001916815260200190815260200160002060000160016101000a81548163ffffffff021916908363ffffffff1602179055507f43e76a2687c7b12792086e4c776772be26c4d6a7041115f446cbc22ccada08ab8160405180826000191660001916815260200191505060405180910390a1600260009054906101000a900473ffffffffffffffffffffffffffffffffffffffff1673ffffffffffffffffffffffffffffffffffffffff163373ffffffffffffffffffffffffffffffffffffffff161415612ff057612fef8185612f4461ffff1601613366565b5b600192505b50509695505050505050565b600061300b6133e2565b60008061301b8a8a8a8a8a61288f565b9250925082600001511515613033576000935061315f565b600260009054906101000a900473ffffffffffffffffffffffffffffffffffffffff1673ffffffffffffffffffffffffffffffffffffffff163373ffffffffffffffffffffffffffffffffffffffff161461308f57600061309b565b3a85618d0461ffff1601025b8360400151019050600460008360001916600019168152602001908152602001600020600080820160006101000a81549060ff02191690556000820160016101000a81549063ffffffff02191690556000820160056101000a8154906fffffffffffffffffffffffffffffffff021916905550507f6eec2dd2382427616d4ea7ef183b16091feac4e2e63c8b55f25215f132df8d148260405180826000191660001916815260200191505060405180910390a161315a888883896132ca565b600193505b5050509695505050505050565b60008087878760405180846fffffffffffffffffffffffffffffffff19166fffffffffffffffffffffffffffffffff191681526010018360ff1660ff167f0100000000000000000000000000000000000000000000000000000000000000028152600101826fffffffffffffffffffffffffffffffff166fffffffffffffffffffffffffffffffff16700100000000000000000000000000000000028152601001935050505060405180910390209050856fffffffffffffffffffffffffffffffff163a111561323b576132bf565b600181868686604051600081526020016040526040518085600019166000191681526020018460ff1660ff1681526020018360001916600019168152602001826000191660001916815260200194505050505060206040516020810390808403906000865af11580156132b2573d6000803e3d6000fd5b5050506020604051035191505b509695505050505050565b6000826fffffffffffffffffffffffffffffffff166127108361ffff1686028115156132f257fe5b040190508381850311156133055761335f565b806003600082825401925050819055508473ffffffffffffffffffffffffffffffffffffffff166108fc8286039081150290604051600060405180830381858888f1935050505015801561335d573d6000803e3d6000fd5b505b5050505050565b3a810260046000846000191660001916815260200190815260200160002060000160058282829054906101000a90046fffffffffffffffffffffffffffffffff160192506101000a8154816fffffffffffffffffffffffffffffffff02191690836fffffffffffffffffffffffffffffffff1602179055505050565b606060405190810160405280600015158152602001600063ffffffff16815260200160006fffffffffffffffffffffffffffffffff16815250905600a165627a7a723058204f9aa24fddc995a6f77a58cd2e856458e496fc3fe94d8c88780c65a394cd7ffe0029",
  "source": "contract Token {\r\n    function transfer(address _to, uint _value) public returns (bool success);\r\n    function transferFrom(address _from, address _to, uint _value) public returns (bool success);\r\n    function approve(address _spender, uint _value) public returns (bool success);\r\n}\r\ncontract LocalEthereumEscrows {\r\n    // The address of the arbitrator\r\n    // In the first version, this is always localethereum staff.\r\n    address public arbitrator;\r\n    address public owner;\r\n    address public relayer;\r\n    uint32 public requestCancellationMinimumTime;\r\n    uint256 public feesAvailableForWithdraw;\r\n\r\n    uint8 constant ACTION_SELLER_CANNOT_CANCEL = 0x01; // Called when marking as paid or calling a dispute as the buyer\r\n    uint8 constant ACTION_BUYER_CANCEL = 0x02;\r\n    uint8 constant ACTION_SELLER_CANCEL = 0x03;\r\n    uint8 constant ACTION_SELLER_REQUEST_CANCEL = 0x04;\r\n    uint8 constant ACTION_RELEASE = 0x05;\r\n    uint8 constant ACTION_DISPUTE = 0x06;\r\n\r\n    event Created(bytes32 _tradeHash);\r\n    event SellerCancelDisabled(bytes32 _tradeHash);\r\n    event SellerRequestedCancel(bytes32 _tradeHash);\r\n    event CancelledBySeller(bytes32 _tradeHash);\r\n    event CancelledByBuyer(bytes32 _tradeHash);\r\n    event Released(bytes32 _tradeHash);\r\n    event DisputeResolved(bytes32 _tradeHash);\r\n\r\n    struct Escrow {\r\n        // Set so we know the trade has already been created\r\n        bool exists;\r\n        // The timestamp in which the seller can cancel the trade if the buyer has not yet marked as paid. Set to 0 on marked paid or dispute\r\n        // 1 = unlimited cancel time\r\n        uint32 sellerCanCancelAfter;\r\n        // The total cost of gas spent by relaying parties. This amount will be\r\n        // refunded/paid to localethereum.com once the escrow is finished.\r\n        uint128 totalGasFeesSpentByRelayer;\r\n    }\r\n    // Mapping of active trades. Key is a hash of the trade data\r\n    mapping (bytes32 => Escrow) public escrows;\r\n\r\n    modifier onlyOwner() {\r\n        require(msg.sender == owner);\r\n        _;\r\n    }\r\n\r\n    modifier onlyArbitrator() {\r\n        require(msg.sender == arbitrator);\r\n        _;\r\n    }\r\n\r\n    function getRelayedSender(\r\n      bytes16 _tradeID, // The unique ID of the trade, generated by localethereum.com\r\n      uint8 _actionByte, // The desired action of the user, matching an ACTION_* constant\r\n      uint128 _maximumGasPrice, // The maximum gas price the user is willing to pay\r\n      uint8 _v, // Signature value\r\n      bytes32 _r, // Signature value\r\n      bytes32 _s // Signature value\r\n    ) view private returns (address) {\r\n        bytes32 _hash = keccak256(_tradeID, _actionByte, _maximumGasPrice);\r\n        if(tx.gasprice > _maximumGasPrice) return;\r\n        return ecrecover(_hash, _v, _r, _s);\r\n    }\r\n\r\n    function LocalEthereumEscrows() public {\r\n        /**\r\n         * Initialize the contract.\r\n         */\r\n        owner = msg.sender;\r\n        arbitrator = msg.sender;\r\n        relayer = msg.sender;\r\n        requestCancellationMinimumTime = 2 hours; // TODO\r\n    }\r\n\r\n    function getEscrowAndHash(\r\n      /**\r\n       * Hashes the values and returns the matching escrow object and trade hash.\r\n       * Returns an empty escrow struct and 0 _tradeHash if not found\r\n       */\r\n      bytes16 _tradeID,\r\n      address _seller,\r\n      address _buyer,\r\n      uint256 _value,\r\n      uint16 _fee\r\n    ) view private returns (Escrow, bytes32) {\r\n        bytes32 _tradeHash = keccak256(_tradeID, _seller, _buyer, _value, _fee);\r\n        return (escrows[_tradeHash], _tradeHash);\r\n    }\r\n\r\n    function createEscrow(\r\n      /**\r\n       * Create a new escrow and add it to `escrows`.\r\n       * _tradeHash is created by hashing _tradeID, _seller, _buyer, _value and _fee variables. These variables must be supplied on future contract calls.\r\n       * v, r and s is the signature data supplied from the api. The sig is keccak256(_tradeHash, _paymentWindowInSeconds, _expiry).\r\n       */\r\n      bytes16 _tradeID, // The unique ID of the trade, generated by localethereum.com\r\n      address _seller, // The selling party of the trade\r\n      address _buyer, // The buying party of the trade\r\n      uint256 _value, // The ether amount being held in escrow\r\n      uint16 _fee, // The localethereum.com fee in 1/10000ths\r\n      uint32 _paymentWindowInSeconds, // The time in seconds from contract creation that the buyer has to mark as paid\r\n      uint32 _expiry, // Provided by localethereum.com. This transaction must be created before this time.\r\n      uint8 _v, // Signature value\r\n      bytes32 _r, // Signature value\r\n      bytes32 _s // Signature value\r\n    ) payable external {\r\n        bytes32 _tradeHash = keccak256(_tradeID, _seller, _buyer, _value, _fee);\r\n        require(!escrows[_tradeHash].exists); // Require that trade does not already exist\r\n        require(ecrecover(keccak256(_tradeHash, _paymentWindowInSeconds, _expiry), _v, _r, _s) == relayer); // Signature must have come from the relayer\r\n        require(block.timestamp < _expiry);\r\n        require(msg.value == _value && msg.value > 0); // Check sent eth against signed _value and make sure is not 0\r\n        uint32 _sellerCanCancelAfter = _paymentWindowInSeconds == 0 ? 1 : uint32(block.timestamp) + _paymentWindowInSeconds;\r\n        escrows[_tradeHash] = Escrow(true, _sellerCanCancelAfter, 0);\r\n        Created(_tradeHash);\r\n    }\r\n\r\n    uint16 constant GAS_doRelease = 36100;\r\n    function doRelease(\r\n      /**\r\n       * Called by the seller to releases the funds for a successful trade.\r\n       * Deletes the trade from the `escrows` mapping.\r\n       */\r\n      bytes16 _tradeID,\r\n      address _seller,\r\n      address _buyer,\r\n      uint256 _value,\r\n      uint16 _fee,\r\n      uint128 _additionalGas\r\n    ) private returns (bool) {\r\n        var (_escrow, _tradeHash) = getEscrowAndHash(_tradeID, _seller, _buyer, _value, _fee);\r\n        if (!_escrow.exists) return false;\r\n        uint128 _gasFees = _escrow.totalGasFeesSpentByRelayer + (msg.sender == relayer ? (GAS_doRelease + _additionalGas) * uint128(tx.gasprice) : 0);\r\n        delete escrows[_tradeHash];\r\n        Released(_tradeHash);\r\n        transferMinusFees(_buyer, _value, _gasFees, _fee);\r\n        return true;\r\n    }\r\n\r\n    uint16 constant GAS_doDisableSellerCancel = 12100;\r\n    function doDisableSellerCancel(\r\n      /**\r\n       * Stops the seller from cancelling the trade.\r\n       * Can only be called the buyer.\r\n       * Used to mark the trade as paid, or if the buyer has a dispute.\r\n       */\r\n      bytes16 _tradeID,\r\n      address _seller,\r\n      address _buyer,\r\n      uint256 _value,\r\n      uint16 _fee,\r\n      uint128 _additionalGas\r\n    ) private returns (bool) {\r\n        var (_escrow, _tradeHash) = getEscrowAndHash(_tradeID, _seller, _buyer, _value, _fee);\r\n        if (!_escrow.exists) return false;\r\n        if(_escrow.sellerCanCancelAfter == 0) return false;\r\n        escrows[_tradeHash].sellerCanCancelAfter = 0;\r\n        SellerCancelDisabled(_tradeHash);\r\n        if (msg.sender == relayer) {\r\n          increaseGasSpent(_tradeHash, GAS_doDisableSellerCancel + _additionalGas);\r\n        }\r\n        return true;\r\n    }\r\n\r\n    uint16 constant GAS_doBuyerCancel = 36100;\r\n    function doBuyerCancel(\r\n      /**\r\n       * Cancels the trade and returns the ether to the seller.\r\n       * Can only be called the buyer.\r\n       */\r\n      bytes16 _tradeID,\r\n      address _seller,\r\n      address _buyer,\r\n      uint256 _value,\r\n      uint16 _fee,\r\n      uint128 _additionalGas\r\n    ) private returns (bool) {\r\n        var (_escrow, _tradeHash) = getEscrowAndHash(_tradeID, _seller, _buyer, _value, _fee);\r\n        if (!_escrow.exists) return false;\r\n        uint128 _gasFees = _escrow.totalGasFeesSpentByRelayer + (msg.sender == relayer ? (GAS_doBuyerCancel + _additionalGas) * uint128(tx.gasprice) : 0);\r\n        delete escrows[_tradeHash];\r\n        CancelledByBuyer(_tradeHash);\r\n        transferMinusFees(_seller, _value, _gasFees, 0);\r\n        return true;\r\n    }\r\n\r\n    uint16 constant GAS_doSellerCancel = 36100;\r\n    function doSellerCancel(\r\n      /**\r\n       * Cancels the trade and returns the ether to the seller.\r\n       * Can only be called the seller.\r\n       * Can only be called if the payment window was missed by the buyer\r\n       */\r\n      bytes16 _tradeID,\r\n      address _seller,\r\n      address _buyer,\r\n      uint256 _value,\r\n      uint16 _fee,\r\n      uint128 _additionalGas\r\n    ) private returns (bool) {\r\n        var (_escrow, _tradeHash) = getEscrowAndHash(_tradeID, _seller, _buyer, _value, _fee);\r\n        if (!_escrow.exists) return false;\r\n        if(_escrow.sellerCanCancelAfter <= 1 || _escrow.sellerCanCancelAfter > block.timestamp) return false;\r\n        uint128 _gasFees = _escrow.totalGasFeesSpentByRelayer + (msg.sender == relayer ? (GAS_doSellerCancel + _additionalGas) * uint128(tx.gasprice) : 0);\r\n        delete escrows[_tradeHash];\r\n        CancelledBySeller(_tradeHash);\r\n        transferMinusFees(_seller, _value, _gasFees, 0);\r\n        return true;\r\n    }\r\n\r\n    uint16 constant GAS_doSellerRequestCancel = 12100;\r\n    function doSellerRequestCancel(\r\n      /**\r\n       * Called by the seller if the buyer is unresponsive\r\n       * Can only be called on unlimited payment window trades (sellerCanCancelAfter == 1)\r\n       * Sets the payment window to `requestCancellationMinimumTime` from now, in which it can be cancelled.\r\n       */\r\n      bytes16 _tradeID,\r\n      address _seller,\r\n      address _buyer,\r\n      uint256 _value,\r\n      uint16 _fee,\r\n      uint128 _additionalGas\r\n    ) private returns (bool) {\r\n        // Called on unlimited payment window trades wheret the buyer is not responding\r\n        var (_escrow, _tradeHash) = getEscrowAndHash(_tradeID, _seller, _buyer, _value, _fee);\r\n        if (!_escrow.exists) return false;\r\n        if(_escrow.sellerCanCancelAfter != 1) return false;\r\n        escrows[_tradeHash].sellerCanCancelAfter = uint32(block.timestamp) + requestCancellationMinimumTime;\r\n        SellerRequestedCancel(_tradeHash);\r\n        if (msg.sender == relayer) {\r\n          increaseGasSpent(_tradeHash, GAS_doSellerRequestCancel + _additionalGas);\r\n        }\r\n        return true;\r\n    }\r\n\r\n    uint16 constant GAS_doResolveDispute = 36100;\r\n    function resolveDispute(\r\n      /**\r\n       * Called by the arbitrator to resolve a dispute\r\n       * Requires the signed ACTION_DISPUTE actionByte from either the buyer or the seller\r\n       */\r\n      bytes16 _tradeID,\r\n      address _seller,\r\n      address _buyer,\r\n      uint256 _value,\r\n      uint16 _fee,\r\n      uint8 _v,\r\n      bytes32 _r,\r\n      bytes32 _s,\r\n      uint8 _buyerPercent\r\n    ) external onlyArbitrator {\r\n        address _signature = ecrecover(keccak256(_tradeID, ACTION_DISPUTE), _v, _r, _s);\r\n        require(_signature == _buyer || _signature == _seller);\r\n\r\n        var (_escrow, _tradeHash) = getEscrowAndHash(_tradeID, _seller, _buyer, _value, _fee);\r\n        require(_escrow.exists);\r\n        require(_buyerPercent <= 100);\r\n\r\n        uint256 _totalFees = _escrow.totalGasFeesSpentByRelayer + GAS_doResolveDispute;\r\n        require(_value - _totalFees <= _value); // Prevent underflow\r\n        feesAvailableForWithdraw += _totalFees; // Add the the pot for localethereum to withdraw\r\n\r\n        delete escrows[_tradeHash];\r\n        DisputeResolved(_tradeHash);\r\n        _buyer.transfer((_value - _totalFees) * _buyerPercent / 100);\r\n        _seller.transfer((_value - _totalFees) * (100 - _buyerPercent) / 100);\r\n    }\r\n\r\n    function release(bytes16 _tradeID, address _seller, address _buyer, uint256 _value, uint16 _fee) external returns (bool){\r\n      require(msg.sender == _seller);\r\n      return doRelease(_tradeID, _seller, _buyer, _value, _fee, 0);\r\n    }\r\n    function disableSellerCancel(bytes16 _tradeID, address _seller, address _buyer, uint256 _value, uint16 _fee) external returns (bool) {\r\n      require(msg.sender == _buyer);\r\n      return doDisableSellerCancel(_tradeID, _seller, _buyer, _value, _fee, 0);\r\n    }\r\n    function buyerCancel(bytes16 _tradeID, address _seller, address _buyer, uint256 _value, uint16 _fee) external returns (bool) {\r\n      require(msg.sender == _buyer);\r\n      return doBuyerCancel(_tradeID, _seller, _buyer, _value, _fee, 0);\r\n    }\r\n    function sellerCancel(bytes16 _tradeID, address _seller, address _buyer, uint256 _value, uint16 _fee) external returns (bool) {\r\n      require(msg.sender == _seller);\r\n      return doSellerCancel(_tradeID, _seller, _buyer, _value, _fee, 0);\r\n    }\r\n    function sellerRequestCancel(bytes16 _tradeID, address _seller, address _buyer, uint256 _value, uint16 _fee) external returns (bool) {\r\n      require(msg.sender == _seller);\r\n      return doSellerRequestCancel(_tradeID, _seller, _buyer, _value, _fee, 0);\r\n    }\r\n\r\n    function relaySellerCannotCancel(bytes16 _tradeID, address _seller, address _buyer, uint256 _value, uint16 _fee, uint128 _maximumGasPrice, uint8 _v, bytes32 _r, bytes32 _s) external returns (bool) {\r\n      return relay(_tradeID, _seller, _buyer, _value, _fee, _maximumGasPrice, _v, _r, _s, ACTION_SELLER_CANNOT_CANCEL, 0);\r\n    }\r\n    function relayBuyerCancel(bytes16 _tradeID, address _seller, address _buyer, uint256 _value, uint16 _fee, uint128 _maximumGasPrice, uint8 _v, bytes32 _r, bytes32 _s) external returns (bool) {\r\n      return relay(_tradeID, _seller, _buyer, _value, _fee, _maximumGasPrice, _v, _r, _s, ACTION_BUYER_CANCEL, 0);\r\n    }\r\n    function relayRelease(bytes16 _tradeID, address _seller, address _buyer, uint256 _value, uint16 _fee, uint128 _maximumGasPrice, uint8 _v, bytes32 _r, bytes32 _s) external returns (bool) {\r\n      return relay(_tradeID, _seller, _buyer, _value, _fee, _maximumGasPrice, _v, _r, _s, ACTION_RELEASE, 0);\r\n    }\r\n    function relaySellerCancel(bytes16 _tradeID, address _seller, address _buyer, uint256 _value, uint16 _fee, uint128 _maximumGasPrice, uint8 _v, bytes32 _r, bytes32 _s) external returns (bool) {\r\n      return relay(_tradeID, _seller, _buyer, _value, _fee, _maximumGasPrice, _v, _r, _s, ACTION_SELLER_CANCEL, 0);\r\n    }\r\n    function relaySellerRequestCancel(bytes16 _tradeID, address _seller, address _buyer, uint256 _value, uint16 _fee, uint128 _maximumGasPrice, uint8 _v, bytes32 _r, bytes32 _s) external returns (bool) {\r\n      return relay(_tradeID, _seller, _buyer, _value, _fee, _maximumGasPrice, _v, _r, _s, ACTION_SELLER_REQUEST_CANCEL, 0);\r\n    }\r\n\r\n    function relay(\r\n      bytes16 _tradeID,\r\n      address _seller,\r\n      address _buyer,\r\n      uint256 _value,\r\n      uint16 _fee,\r\n      uint128 _maximumGasPrice,\r\n      uint8 _v,\r\n      bytes32 _r,\r\n      bytes32 _s,\r\n      uint8 _actionByte,\r\n      uint128 _additionalGas\r\n    ) private returns (bool) {\r\n      address _relayedSender = getRelayedSender(_tradeID, _actionByte, _maximumGasPrice, _v, _r, _s);\r\n      if (_relayedSender == _buyer) {\r\n        if (_actionByte == ACTION_SELLER_CANNOT_CANCEL) {\r\n          return doDisableSellerCancel(_tradeID, _seller, _buyer, _value, _fee, _additionalGas);\r\n        } else if (_actionByte == ACTION_BUYER_CANCEL) {\r\n          return doBuyerCancel(_tradeID, _seller, _buyer, _value, _fee, _additionalGas);\r\n        }\r\n      } else if (_relayedSender == _seller) {\r\n        if (_actionByte == ACTION_RELEASE) {\r\n          return doRelease(_tradeID, _seller, _buyer, _value, _fee, _additionalGas);\r\n        } else if (_actionByte == ACTION_SELLER_CANCEL) {\r\n          return doSellerCancel(_tradeID, _seller, _buyer, _value, _fee, _additionalGas);\r\n        } else if (_actionByte == ACTION_SELLER_REQUEST_CANCEL){\r\n          return doSellerRequestCancel(_tradeID, _seller, _buyer, _value, _fee, _additionalGas);\r\n        }\r\n      } else {\r\n        return false;\r\n      }\r\n    }\r\n\r\n    uint16 constant GAS_batchRelayBaseCost = 28500;\r\n    function batchRelay(\r\n      /**\r\n       * Call multiple relay methods at once to save on gas.\r\n       */\r\n        bytes16[] _tradeID,\r\n        address[] _seller,\r\n        address[] _buyer,\r\n        uint256[] _value,\r\n        uint16[] _fee,\r\n        uint128[] _maximumGasPrice,\r\n        uint8[] _v,\r\n        bytes32[] _r,\r\n        bytes32[] _s,\r\n        uint8[] _actionByte\r\n    ) public returns (bool[]) {\r\n        bool[] memory _results = new bool[](_tradeID.length);\r\n        uint128 _additionalGas = uint128(msg.sender == relayer ? GAS_batchRelayBaseCost / _tradeID.length : 0);\r\n        for (uint8 i=0; i<_tradeID.length; i++) {\r\n            _results[i] = relay(_tradeID[i], _seller[i], _buyer[i], _value[i], _fee[i], _maximumGasPrice[i], _v[i], _r[i], _s[i], _actionByte[i], _additionalGas);\r\n        }\r\n        return _results;\r\n    }\r\n\r\n    function increaseGasSpent(bytes32 _tradeHash, uint128 _gas) private {\r\n        /** Increase `totalGasFeesSpentByRelayer` to be charged later on completion of the trade.\r\n         */\r\n        escrows[_tradeHash].totalGasFeesSpentByRelayer += _gas * uint128(tx.gasprice);\r\n    }\r\n\r\n    function transferMinusFees(address _to, uint256 _value, uint128 _totalGasFeesSpentByRelayer, uint16 _fee) private {\r\n        uint256 _totalFees = (_value * _fee / 10000) + _totalGasFeesSpentByRelayer;\r\n        if(_value - _totalFees > _value) return; // Prevent underflow\r\n        feesAvailableForWithdraw += _totalFees; // Add the the pot for localethereum to withdraw\r\n        _to.transfer(_value - _totalFees);\r\n    }\r\n\r\n    function withdrawFees(address _to, uint256 _amount) onlyOwner external {\r\n      /**\r\n       * Withdraw fees collected by the contract. Only the owner can call this.\r\n       */\r\n        require(_amount <= feesAvailableForWithdraw); // Also prevents underflow\r\n        feesAvailableForWithdraw -= _amount;\r\n        _to.transfer(_amount);\r\n    }\r\n\r\n    function setArbitrator(address _newArbitrator) onlyOwner external {\r\n        /**\r\n         * Set the arbitrator to a new address. Only the owner can call this.\r\n         * @param address _newArbitrator\r\n         */\r\n        arbitrator = _newArbitrator;\r\n    }\r\n\r\n    function setOwner(address _newOwner) onlyOwner external {\r\n        /**\r\n         * Change the owner to a new address. Only the owner can call this.\r\n         * @param address _newOwner\r\n         */\r\n        owner = _newOwner;\r\n    }\r\n\r\n    function setRelayer(address _newRelayer) onlyOwner external {\r\n        /**\r\n         * Change the relayer to a new address. Only the owner can call this.\r\n         * @param address _newRelayer\r\n         */\r\n        relayer = _newRelayer;\r\n    }\r\n\r\n    function setRequestCancellationMinimumTime(uint32 _newRequestCancellationMinimumTime) onlyOwner external {\r\n        /**\r\n         * Change the requestCancellationMinimumTime. Only the owner can call this.\r\n         * @param uint32 _newRequestCancellationMinimumTime\r\n         */\r\n        requestCancellationMinimumTime = _newRequestCancellationMinimumTime;\r\n    }\r\n\r\n    function transferToken(Token _tokenContract, address _transferTo, uint256 _value) onlyOwner external {\r\n        /**\r\n         * If ERC20 tokens are sent to this contract, they will be trapped forever.\r\n         * This function is way for us to withdraw them so we can get them back to their rightful owner\r\n         */\r\n         _tokenContract.transfer(_transferTo, _value);\r\n    }\r\n    function transferTokenFrom(Token _tokenContract, address _transferTo, address _transferFrom, uint256 _value) onlyOwner external {\r\n        /**\r\n         * If ERC20 tokens are sent to this contract, they will be trapped forever.\r\n         * This function is way for us to withdraw them so we can get them back to their rightful owner\r\n         */\r\n         _tokenContract.transferFrom(_transferTo, _transferFrom, _value);\r\n    }\r\n    function approveToken(Token _tokenContract, address _spender, uint256 _value) onlyOwner external {\r\n        /**\r\n         * If ERC20 tokens are sent to this contract, they will be trapped forever.\r\n         * This function is way for us to withdraw them so we can get them back to their rightful owner\r\n         */\r\n         _tokenContract.approve(_spender, _value);\r\n    }\r\n}\r\n",
  "sourcePath": "C:\\Users\\Monty\\source\\repos\\Escrow\\EscrowNetCore\\truffle\\contracts\\EscrowSpecial.sol",
  "compiler": {
    "name": "solc",
    "version": "0.4.23+commit.124ca40d.Emscripten.clang"
  },
  "schemaVersion": "2.0.0",
  "updatedAt": "2018-06-12T23:45:22.897Z"
}